{
  "_format": "hh-sol-artifact-1",
  "contractName": "DecentraBank",
  "sourceName": "contracts/DecentraBank.sol",
  "abi": [
    {
      "inputs": [
        {
          "internalType": "address",
          "name": "_Dcore",
          "type": "address"
        },
        {
          "internalType": "address",
          "name": "_Dstock",
          "type": "address"
        },
        {
          "internalType": "address",
          "name": "_Ddollar",
          "type": "address"
        },
        {
          "internalType": "uint32",
          "name": "_connectorWeight",
          "type": "uint32"
        },
        {
          "internalType": "uint256",
          "name": "_refundRatio",
          "type": "uint256"
        }
      ],
      "stateMutability": "nonpayable",
      "type": "constructor"
    },
    {
      "anonymous": false,
      "inputs": [
        {
          "indexed": false,
          "internalType": "uint256",
          "name": "dollarAmount",
          "type": "uint256"
        },
        {
          "indexed": false,
          "internalType": "address",
          "name": "tokenType",
          "type": "address"
        }
      ],
      "name": "FundWithdrawl",
      "type": "event"
    },
    {
      "anonymous": false,
      "inputs": [
        {
          "indexed": false,
          "internalType": "address",
          "name": "collateral",
          "type": "address"
        }
      ],
      "name": "NewCollateral",
      "type": "event"
    },
    {
      "anonymous": false,
      "inputs": [
        {
          "indexed": true,
          "internalType": "address",
          "name": "previousOwner",
          "type": "address"
        },
        {
          "indexed": true,
          "internalType": "address",
          "name": "newOwner",
          "type": "address"
        }
      ],
      "name": "OwnershipTransferred",
      "type": "event"
    },
    {
      "anonymous": false,
      "inputs": [
        {
          "indexed": false,
          "internalType": "uint256",
          "name": "dollarAmount",
          "type": "uint256"
        },
        {
          "indexed": false,
          "internalType": "uint256",
          "name": "stockAmount",
          "type": "uint256"
        },
        {
          "indexed": false,
          "internalType": "address",
          "name": "buyer",
          "type": "address"
        }
      ],
      "name": "StockPurchased",
      "type": "event"
    },
    {
      "anonymous": false,
      "inputs": [
        {
          "indexed": false,
          "internalType": "uint256",
          "name": "dollarAmount",
          "type": "uint256"
        },
        {
          "indexed": false,
          "internalType": "uint256",
          "name": "stockAmount",
          "type": "uint256"
        },
        {
          "indexed": false,
          "internalType": "uint256",
          "name": "reserveAmountAdded",
          "type": "uint256"
        },
        {
          "indexed": false,
          "internalType": "address",
          "name": "seller",
          "type": "address"
        }
      ],
      "name": "StockSold",
      "type": "event"
    },
    {
      "inputs": [],
      "name": "DC",
      "outputs": [
        {
          "internalType": "contract IDecentraCore",
          "name": "",
          "type": "address"
        }
      ],
      "stateMutability": "view",
      "type": "function"
    },
    {
      "inputs": [],
      "name": "DD",
      "outputs": [
        {
          "internalType": "contract IDecentraDollar",
          "name": "",
          "type": "address"
        }
      ],
      "stateMutability": "view",
      "type": "function"
    },
    {
      "inputs": [],
      "name": "DS",
      "outputs": [
        {
          "internalType": "contract IDecentraStock",
          "name": "",
          "type": "address"
        }
      ],
      "stateMutability": "view",
      "type": "function"
    },
    {
      "inputs": [],
      "name": "MAX_WEIGHT",
      "outputs": [
        {
          "internalType": "uint32",
          "name": "",
          "type": "uint32"
        }
      ],
      "stateMutability": "view",
      "type": "function"
    },
    {
      "inputs": [
        {
          "internalType": "address",
          "name": "_collateral",
          "type": "address"
        }
      ],
      "name": "addNewCollateralType",
      "outputs": [],
      "stateMutability": "nonpayable",
      "type": "function"
    },
    {
      "inputs": [],
      "name": "calculatePoolBal",
      "outputs": [
        {
          "internalType": "uint256",
          "name": "",
          "type": "uint256"
        }
      ],
      "stateMutability": "view",
      "type": "function"
    },
    {
      "inputs": [
        {
          "internalType": "uint256",
          "name": "_dollarAmount",
          "type": "uint256"
        }
      ],
      "name": "calculatePurchase",
      "outputs": [
        {
          "internalType": "uint256",
          "name": "",
          "type": "uint256"
        }
      ],
      "stateMutability": "view",
      "type": "function"
    },
    {
      "inputs": [
        {
          "internalType": "uint256",
          "name": "_supply",
          "type": "uint256"
        },
        {
          "internalType": "uint256",
          "name": "_connectorBalance",
          "type": "uint256"
        },
        {
          "internalType": "uint32",
          "name": "_connectorWeight",
          "type": "uint32"
        },
        {
          "internalType": "uint256",
          "name": "_depositAmount",
          "type": "uint256"
        }
      ],
      "name": "calculatePurchaseReturn",
      "outputs": [
        {
          "internalType": "uint256",
          "name": "",
          "type": "uint256"
        }
      ],
      "stateMutability": "view",
      "type": "function"
    },
    {
      "inputs": [
        {
          "internalType": "uint256",
          "name": "_stockAmount",
          "type": "uint256"
        }
      ],
      "name": "calculateSale",
      "outputs": [
        {
          "internalType": "uint256",
          "name": "",
          "type": "uint256"
        }
      ],
      "stateMutability": "view",
      "type": "function"
    },
    {
      "inputs": [
        {
          "internalType": "uint256",
          "name": "_supply",
          "type": "uint256"
        },
        {
          "internalType": "uint256",
          "name": "_connectorBalance",
          "type": "uint256"
        },
        {
          "internalType": "uint32",
          "name": "_connectorWeight",
          "type": "uint32"
        },
        {
          "internalType": "uint256",
          "name": "_sellAmount",
          "type": "uint256"
        }
      ],
      "name": "calculateSaleReturn",
      "outputs": [
        {
          "internalType": "uint256",
          "name": "",
          "type": "uint256"
        }
      ],
      "stateMutability": "view",
      "type": "function"
    },
    {
      "inputs": [],
      "name": "collateralCount",
      "outputs": [
        {
          "internalType": "uint256",
          "name": "",
          "type": "uint256"
        }
      ],
      "stateMutability": "view",
      "type": "function"
    },
    {
      "inputs": [
        {
          "internalType": "uint256",
          "name": "",
          "type": "uint256"
        }
      ],
      "name": "collateralTypes",
      "outputs": [
        {
          "internalType": "address",
          "name": "",
          "type": "address"
        }
      ],
      "stateMutability": "view",
      "type": "function"
    },
    {
      "inputs": [],
      "name": "connectorWeight",
      "outputs": [
        {
          "internalType": "uint32",
          "name": "",
          "type": "uint32"
        }
      ],
      "stateMutability": "view",
      "type": "function"
    },
    {
      "inputs": [],
      "name": "divisor",
      "outputs": [
        {
          "internalType": "uint256",
          "name": "",
          "type": "uint256"
        }
      ],
      "stateMutability": "view",
      "type": "function"
    },
    {
      "inputs": [],
      "name": "fractionalReserveValue",
      "outputs": [
        {
          "internalType": "uint256",
          "name": "",
          "type": "uint256"
        }
      ],
      "stateMutability": "view",
      "type": "function"
    },
    {
      "inputs": [
        {
          "internalType": "address",
          "name": "_to",
          "type": "address"
        },
        {
          "internalType": "uint256",
          "name": "_type",
          "type": "uint256"
        },
        {
          "internalType": "uint256",
          "name": "_amount",
          "type": "uint256"
        }
      ],
      "name": "fundWithdrawl",
      "outputs": [],
      "stateMutability": "nonpayable",
      "type": "function"
    },
    {
      "inputs": [],
      "name": "lockedBalance",
      "outputs": [
        {
          "internalType": "uint256",
          "name": "",
          "type": "uint256"
        }
      ],
      "stateMutability": "view",
      "type": "function"
    },
    {
      "inputs": [],
      "name": "owner",
      "outputs": [
        {
          "internalType": "address",
          "name": "",
          "type": "address"
        }
      ],
      "stateMutability": "view",
      "type": "function"
    },
    {
      "inputs": [],
      "name": "percent",
      "outputs": [
        {
          "internalType": "uint256",
          "name": "",
          "type": "uint256"
        }
      ],
      "stateMutability": "view",
      "type": "function"
    },
    {
      "inputs": [
        {
          "internalType": "uint256",
          "name": "_amount",
          "type": "uint256"
        },
        {
          "internalType": "uint256",
          "name": "_tokenType",
          "type": "uint256"
        }
      ],
      "name": "purchaseStock",
      "outputs": [],
      "stateMutability": "payable",
      "type": "function"
    },
    {
      "inputs": [],
      "name": "refundRatio",
      "outputs": [
        {
          "internalType": "uint256",
          "name": "",
          "type": "uint256"
        }
      ],
      "stateMutability": "view",
      "type": "function"
    },
    {
      "inputs": [],
      "name": "renounceOwnership",
      "outputs": [],
      "stateMutability": "nonpayable",
      "type": "function"
    },
    {
      "inputs": [
        {
          "internalType": "uint256",
          "name": "_amount",
          "type": "uint256"
        }
      ],
      "name": "sellStock",
      "outputs": [],
      "stateMutability": "nonpayable",
      "type": "function"
    },
    {
      "inputs": [],
      "name": "setUp",
      "outputs": [],
      "stateMutability": "payable",
      "type": "function"
    },
    {
      "inputs": [
        {
          "internalType": "address",
          "name": "newOwner",
          "type": "address"
        }
      ],
      "name": "transferOwnership",
      "outputs": [],
      "stateMutability": "nonpayable",
      "type": "function"
    },
    {
      "inputs": [],
      "name": "version",
      "outputs": [
        {
          "internalType": "string",
          "name": "",
          "type": "string"
        }
      ],
      "stateMutability": "view",
      "type": "function"
    }
  ],
  "bytecode": "0x60806040526040518060400160405280600381526020017f302e3300000000000000000000000000000000000000000000000000000000008152506001908051906020019062000051929190620014f1565b503480156200005f57600080fd5b5060405162005794380380620057948339818101604052810190620000859190620015e6565b600062000097620014e960201b60201c565b9050806000806101000a81548173ffffffffffffffffffffffffffffffffffffffff021916908373ffffffffffffffffffffffffffffffffffffffff1602179055508073ffffffffffffffffffffffffffffffffffffffff16600073ffffffffffffffffffffffffffffffffffffffff167f8be0079c531659141344cd1fd0a4f28419497f9722a3daafe3b4186f6b6457e060405160405180910390a350701c35fedd14ffffffffffffffffffffffff60026020608081106200015f576200015e62001721565b5b0181905550701b0ce43b323fffffffffffffffffffffff60026021608081106200018e576200018d62001721565b5b01819055507019f0028ec1ffffffffffffffffffffffff6002602260808110620001bd57620001bc62001721565b5b01819055507018ded91f0e7fffffffffffffffffffffff6002602360808110620001ec57620001eb62001721565b5b01819055507017d8ec7f0417ffffffffffffffffffffff60026024608081106200021b576200021a62001721565b5b01819055507016ddc6556cdbffffffffffffffffffffff60026025608081106200024a576200024962001721565b5b01819055507015ecf52776a1ffffffffffffffffffffff600260266080811062000279576200027862001721565b5b01819055507015060c256cb2ffffffffffffffffffffff6002602760808110620002a857620002a762001721565b5b0181905550701428a2f98d72ffffffffffffffffffffff6002602860808110620002d757620002d662001721565b5b01819055507013545598e5c23fffffffffffffffffffff600260296080811062000306576200030562001721565b5b0181905550701288c4161ce1dfffffffffffffffffffff6002602a6080811062000335576200033462001721565b5b01819055507011c592761c666fffffffffffffffffffff6002602b6080811062000364576200036362001721565b5b018190555070110a688680a757ffffffffffffffffffff6002602c6080811062000393576200039262001721565b5b0181905550701056f1b5bedf77ffffffffffffffffffff6002602d60808110620003c257620003c162001721565b5b0181905550700faadceceeff8bffffffffffffffffffff6002602e60808110620003f157620003f062001721565b5b0181905550700f05dc6b27edadffffffffffffffffffff6002602f6080811062000420576200041f62001721565b5b0181905550700e67a5a25da4107fffffffffffffffffff60026030608081106200044f576200044e62001721565b5b0181905550700dcff115b14eedffffffffffffffffffff60026031608081106200047e576200047d62001721565b5b0181905550700d3e7a392431239fffffffffffffffffff6002603260808110620004ad57620004ac62001721565b5b0181905550700cb2ff529eb71e4fffffffffffffffffff6002603360808110620004dc57620004db62001721565b5b0181905550700c2d415c3db974afffffffffffffffffff60026034608081106200050b576200050a62001721565b5b0181905550700bad03e7d883f69bffffffffffffffffff60026035608081106200053a576200053962001721565b5b0181905550700b320d03b2c343d5ffffffffffffffffff600260366080811062000569576200056862001721565b5b0181905550700abc25204e02828dffffffffffffffffff600260376080811062000598576200059762001721565b5b0181905550700a4b16f74ee4bb207fffffffffffffffff6002603860808110620005c757620005c662001721565b5b01819055507009deaf736ac1f569ffffffffffffffffff6002603960808110620005f657620005f562001721565b5b0181905550700976bd9952c7aa957fffffffffffffffff6002603a6080811062000625576200062462001721565b5b01819055507009131271922eaa606fffffffffffffffff6002603b6080811062000654576200065362001721565b5b01819055507008b380f3558668c46fffffffffffffffff6002603c6080811062000683576200068262001721565b5b0181905550700857ddf0117efa215bffffffffffffffff6002603d60808110620006b257620006b162001721565b5b01819055507007ffffffffffffffffffffffffffffffff6002603e60808110620006e157620006e062001721565b5b01819055507007abbf6f6abb9d087fffffffffffffffff6002603f6080811062000710576200070f62001721565b5b018190555070075af62cbac95f7dfa7fffffffffffffff60026040608081106200073f576200073e62001721565b5b018190555070070d7fb7452e187ac13fffffffffffffff60026041608081106200076e576200076d62001721565b5b01819055507006c3390ecc8af379295fffffffffffffff60026042608081106200079d576200079c62001721565b5b018190555070067c00a3b07ffc01fd6fffffffffffffff6002604360808110620007cc57620007cb62001721565b5b0181905550700637b647c39cbb9d3d27ffffffffffffff6002604460808110620007fb57620007fa62001721565b5b01819055507005f63b1fc104dbd39587ffffffffffffff60026045608081106200082a576200082962001721565b5b01819055507005b771955b36e12f7235ffffffffffffff600260466080811062000859576200085862001721565b5b018190555070057b3d49dda84556d6f6ffffffffffffff600260476080811062000888576200088762001721565b5b018190555070054183095b2c8ececf30ffffffffffffff6002604860808110620008b757620008b662001721565b5b018190555070050a28be635ca2b888f77fffffffffffff6002604960808110620008e657620008e562001721565b5b01819055507004d5156639708c9db33c3fffffffffffff6002604a6080811062000915576200091462001721565b5b01819055507004a23105873875bd52dfdfffffffffffff6002604b6080811062000944576200094362001721565b5b0181905550700471649d87199aa990756fffffffffffff6002604c6080811062000973576200097262001721565b5b01819055507004429a21a029d4c1457cfbffffffffffff6002604d60808110620009a257620009a162001721565b5b0181905550700415bc6d6fb7dd71af2cb3ffffffffffff6002604e60808110620009d157620009d062001721565b5b01819055507003eab73b3bbfe282243ce1ffffffffffff6002604f6080811062000a0057620009ff62001721565b5b01819055507003c1771ac9fb6b4c18e229ffffffffffff600260506080811062000a2f5762000a2e62001721565b5b0181905550700399e96897690418f785257fffffffffff600260516080811062000a5e5762000a5d62001721565b5b0181905550700373fc456c53bb779bf0ea9fffffffffff600260526080811062000a8d5762000a8c62001721565b5b018190555070034f9e8e490c48e67e6ab8bfffffffffff600260536080811062000abc5762000abb62001721565b5b018190555070032cbfd4a7adc790560b3337ffffffffff600260546080811062000aeb5762000aea62001721565b5b018190555070030b50570f6e5d2acca94613ffffffffff600260556080811062000b1a5762000b1962001721565b5b01819055507002eb40f9f620fda6b56c2861ffffffffff600260566080811062000b495762000b4862001721565b5b01819055507002cc8340ecb0d0f520a6af58ffffffffff600260576080811062000b785762000b7762001721565b5b01819055507002af09481380a0a35cf1ba02ffffffffff600260586080811062000ba75762000ba662001721565b5b0181905550700292c5bdd3b92ec810287b1b3fffffffff600260596080811062000bd65762000bd562001721565b5b0181905550700277abdcdab07d5a77ac6d6b9fffffffff6002605a6080811062000c055762000c0462001721565b5b018190555070025daf6654b1eaa55fd64df5efffffffff6002605b6080811062000c345762000c3362001721565b5b0181905550700244c49c648baa98192dce88b7ffffffff6002605c6080811062000c635762000c6262001721565b5b018190555070022ce03cd5619a311b2471268bffffffff6002605d6080811062000c925762000c9162001721565b5b0181905550700215f77c045fbe885654a44a0fffffffff6002605e6080811062000cc15762000cc062001721565b5b01819055507001ffffffffffffffffffffffffffffffff6002605f6080811062000cf05762000cef62001721565b5b01819055507001eaefdbdaaee7421fc4d3ede5ffffffff600260606080811062000d1f5762000d1e62001721565b5b01819055507001d6bd8b2eb257df7e8ca57b09bfffffff600260616080811062000d4e5762000d4d62001721565b5b01819055507001c35fedd14b861eb0443f7f133fffffff600260626080811062000d7d5762000d7c62001721565b5b01819055507001b0ce43b322bcde4a56e8ada5afffffff600260636080811062000dac5762000dab62001721565b5b018190555070019f0028ec1fff007f5a195a39dfffffff600260646080811062000ddb5762000dda62001721565b5b018190555070018ded91f0e72ee74f49b15ba527ffffff600260656080811062000e0a5762000e0962001721565b5b018190555070017d8ec7f04136f4e5615fd41a63ffffff600260666080811062000e395762000e3862001721565b5b018190555070016ddc6556cdb84bdc8d12d22e6fffffff600260676080811062000e685762000e6762001721565b5b018190555070015ecf52776a1155b5bd8395814f7fffff600260686080811062000e975762000e9662001721565b5b018190555070015060c256cb23b3b3cc3754cf40ffffff600260696080811062000ec65762000ec562001721565b5b01819055507001428a2f98d728ae223ddab715be3fffff6002606a6080811062000ef55762000ef462001721565b5b018190555070013545598e5c23276ccf0ede68034fffff6002606b6080811062000f245762000f2362001721565b5b01819055507001288c4161ce1d6f54b7f61081194fffff6002606c6080811062000f535762000f5262001721565b5b018190555070011c592761c666aa641d5a01a40f17ffff6002606d6080811062000f825762000f8162001721565b5b0181905550700110a688680a7530515f3e6e6cfdcdffff6002606e6080811062000fb15762000fb062001721565b5b01819055507001056f1b5bedf75c6bcb2ce8aed428ffff6002606f6080811062000fe05762000fdf62001721565b5b01819055506ffaadceceeff8a0890f3875f008277fff60026070608081106200100e576200100d62001721565b5b01819055506ff05dc6b27edad306388a600f6ba0bfff60026071608081106200103c576200103b62001721565b5b01819055506fe67a5a25da41063de1495d5b18cdbfff60026072608081106200106a576200106962001721565b5b01819055506fdcff115b14eedde6fc3aa5353f2e4fff600260736080811062001098576200109762001721565b5b01819055506fd3e7a3924312399f9aae2e0f868f8fff6002607460808110620010c657620010c562001721565b5b01819055506fcb2ff529eb71e41582cccd5a1ee26fff6002607560808110620010f457620010f362001721565b5b01819055506fc2d415c3db974ab32a51840c0b67edff600260766080811062001122576200112162001721565b5b01819055506fbad03e7d883f69ad5b0a186184e06bff600260776080811062001150576200114f62001721565b5b01819055506fb320d03b2c343d4829abd6075f0cc5ff60026078608081106200117e576200117d62001721565b5b01819055506fabc25204e02828d73c6e80bcdb1a95bf6002607960808110620011ac57620011ab62001721565b5b01819055506fa4b16f74ee4bb2040a1ec6c15fbbf2df6002607a60808110620011da57620011d962001721565b5b01819055506f9deaf736ac1f569deb1b5ae3f36c130f6002607b6080811062001208576200120762001721565b5b01819055506f976bd9952c7aa957f5937d790ef650376002607c6080811062001236576200123562001721565b5b01819055506f9131271922eaa6064b73a22d0bd4f2bf6002607d6080811062001264576200126362001721565b5b01819055506f8b380f3558668c46c91c49a2f8e967b96002607e6080811062001292576200129162001721565b5b01819055506f857ddf0117efa215952912839f6473e66002607f60808110620012c057620012bf62001721565b5b0181905550620f4240608260006101000a81548163ffffffff021916908363ffffffff16021790555082608960006101000a81548173ffffffffffffffffffffffffffffffffffffffff021916908373ffffffffffffffffffffffffffffffffffffffff16021790555083608a60006101000a81548173ffffffffffffffffffffffffffffffffffffffff021916908373ffffffffffffffffffffffffffffffffffffffff16021790555084608b60006101000a81548173ffffffffffffffffffffffffffffffffffffffff021916908373ffffffffffffffffffffffffffffffffffffffff160217905550608c60009080600181540180825580915050600190039060005260206000200160009091909190916101000a81548173ffffffffffffffffffffffffffffffffffffffff021916908373ffffffffffffffffffffffffffffffffffffffff160217905550608c608960009054906101000a900473ffffffffffffffffffffffffffffffffffffffff169080600181540180825580915050600190039060005260206000200160009091909190916101000a81548173ffffffffffffffffffffffffffffffffffffffff021916908373ffffffffffffffffffffffffffffffffffffffff160217905550600260878190555081608260046101000a81548163ffffffff021916908363ffffffff16021790555080608481905550601960858190555061271060868190555060026088819055505050505050620017a3565b600033905090565b828054620014ff90620016bc565b90600052602060002090601f0160209004810192826200152357600085556200156f565b82601f106200153e57805160ff19168380011785556200156f565b828001600101855582156200156f579182015b828111156200156e57825182559160200191906001019062001551565b5b5090506200157e919062001582565b5090565b5b808211156200159d57600081600090555060010162001583565b5090565b600081519050620015b28162001755565b92915050565b600081519050620015c9816200176f565b92915050565b600081519050620015e08162001789565b92915050565b600080600080600060a0868803121562001605576200160462001750565b5b60006200161588828901620015a1565b95505060206200162888828901620015a1565b94505060406200163b88828901620015a1565b93505060606200164e88828901620015cf565b92505060806200166188828901620015b8565b9150509295509295909350565b60006200167b8262001682565b9050919050565b600073ffffffffffffffffffffffffffffffffffffffff82169050919050565b6000819050919050565b600063ffffffff82169050919050565b60006002820490506001821680620016d557607f821691505b60208210811415620016ec57620016eb620016f2565b5b50919050565b7f4e487b7100000000000000000000000000000000000000000000000000000000600052602260045260246000fd5b7f4e487b7100000000000000000000000000000000000000000000000000000000600052603260045260246000fd5b600080fd5b62001760816200166e565b81146200176c57600080fd5b50565b6200177a81620016a2565b81146200178657600080fd5b50565b6200179481620016ac565b8114620017a057600080fd5b50565b613fe180620017b36000396000f3fe6080604052600436106101815760003560e01c80637b80889b116100d1578063ca3e24c91161008a578063e4a28a5211610064578063e4a28a5214610536578063eccc32f214610561578063f04b11881461058c578063f2fde38b146105c957610181565b8063ca3e24c9146104b4578063d53ffbcf146104dd578063e1f1e902146104f957610181565b80637b80889b146103a25780638da5cb5b146103cd5780639104c81e146103f8578063918b7cfe14610421578063b586c9a21461045e578063b6faaf8a1461048957610181565b806354fd4d501161013e57806370ba11131161011857806370ba11131461030c578063715018a614610337578063717ad4381461034e578063780249cd1461037757610181565b806354fd4d501461028b5780635cf590d9146102b657806363795d57146102e157610181565b80630a9254e4146101865780631f2dc5ef1461019057806324d69228146101bb57806329a00e7c146101e65780634242bac01461022357806349f9b0f71461024e575b600080fd5b61018e6105f2565b005b34801561019c57600080fd5b506101a56107b4565b6040516101b2919061396f565b60405180910390f35b3480156101c757600080fd5b506101d06107ba565b6040516101dd919061396f565b60405180910390f35b3480156101f257600080fd5b5061020d60048036038101906102089190613643565b61095b565b60405161021a919061396f565b60405180910390f35b34801561022f57600080fd5b50610238610a8d565b60405161024591906138b2565b60405180910390f35b34801561025a57600080fd5b5061027560048036038101906102709190613643565b610ab3565b604051610282919061396f565b60405180910390f35b34801561029757600080fd5b506102a0610c19565b6040516102ad91906138cd565b60405180910390f35b3480156102c257600080fd5b506102cb610ca7565b6040516102d8919061396f565b60405180910390f35b3480156102ed57600080fd5b506102f6610cad565b604051610303919061396f565b60405180910390f35b34801561031857600080fd5b50610321610cb3565b60405161032e919061396f565b60405180910390f35b34801561034357600080fd5b5061034c610cb9565b005b34801561035a57600080fd5b5061037560048036038101906103709190613529565b610df3565b005b34801561038357600080fd5b5061038c610f46565b604051610399919061387c565b60405180910390f35b3480156103ae57600080fd5b506103b7610f6c565b6040516103c4919061396f565b60405180910390f35b3480156103d957600080fd5b506103e2610f72565b6040516103ef91906137d8565b60405180910390f35b34801561040457600080fd5b5061041f600480360381019061041a91906135a9565b610f9b565b005b34801561042d57600080fd5b50610448600480360381019061044391906135a9565b611206565b60405161045591906137d8565b60405180910390f35b34801561046a57600080fd5b50610473611245565b604051610480919061398a565b60405180910390f35b34801561049557600080fd5b5061049e61125b565b6040516104ab919061396f565b60405180910390f35b3480156104c057600080fd5b506104db60048036038101906104d691906134fc565b611261565b005b6104f760048036038101906104f29190613603565b611357565b005b34801561050557600080fd5b50610520600480360381019061051b91906135a9565b6115b4565b60405161052d919061396f565b60405180910390f35b34801561054257600080fd5b5061054b611692565b604051610558919061398a565b60405180910390f35b34801561056d57600080fd5b506105766116a8565b6040516105839190613897565b60405180910390f35b34801561059857600080fd5b506105b360048036038101906105ae91906135a9565b6116ce565b6040516105c0919061396f565b60405180910390f35b3480156105d557600080fd5b506105f060048036038101906105eb91906134fc565b6117d6565b005b6105fa61197f565b73ffffffffffffffffffffffffffffffffffffffff16610618610f72565b73ffffffffffffffffffffffffffffffffffffffff161461066e576040517f08c379a00000000000000000000000000000000000000000000000000000000081526004016106659061392f565b60405180910390fd5b608b60009054906101000a900473ffffffffffffffffffffffffffffffffffffffff1673ffffffffffffffffffffffffffffffffffffffff166383ac74f9306b204fce5e3e250261100000006040518363ffffffff1660e01b81526004016106d792919061382a565b600060405180830381600087803b1580156106f157600080fd5b505af1158015610705573d6000803e3d6000fd5b5050505060006107206b204fce5e3e250261100000006115b4565b9050608b60009054906101000a900473ffffffffffffffffffffffffffffffffffffffff1673ffffffffffffffffffffffffffffffffffffffff166382f4f5b433836040518363ffffffff1660e01b815260040161077f929190613853565b600060405180830381600087803b15801561079957600080fd5b505af11580156107ad573d6000803e3d6000fd5b5050505050565b60865481565b60008060005b608c8054905081101561095357600073ffffffffffffffffffffffffffffffffffffffff16608c82815481106107f9576107f8613e1a565b5b9060005260206000200160009054906101000a900473ffffffffffffffffffffffffffffffffffffffff1673ffffffffffffffffffffffffffffffffffffffff16141561085a57610853478361198790919063ffffffff16565b9150610942565b6000608c82815481106108705761086f613e1a565b5b9060005260206000200160009054906101000a900473ffffffffffffffffffffffffffffffffffffffff16905060008173ffffffffffffffffffffffffffffffffffffffff166370a08231306040518263ffffffff1660e01b81526004016108d891906137d8565b60206040518083038186803b1580156108f057600080fd5b505afa158015610904573d6000803e3d6000fd5b505050506040513d601f19601f8201168201806040525081019061092891906135d6565b905061093d818561198790919063ffffffff16565b935050505b8061094c90613ce4565b90506107c0565b508091505090565b6000808511801561096c5750600084115b801561097e575060008363ffffffff16115b80156109a85750608260009054906101000a900463ffffffff1663ffffffff168363ffffffff1611155b6109b157600080fd5b60008214156109c35760009050610a85565b608260009054906101000a900463ffffffff1663ffffffff168363ffffffff161415610a1557610a0e84610a00848861199d90919063ffffffff16565b6119b390919063ffffffff16565b9050610a85565b6000806000610a2d878661198790919063ffffffff16565b9050610a4d818888608260009054906101000a900463ffffffff166119c9565b809350819450505060008260ff16610a6e858b61199d90919063ffffffff16565b901c90508881610a7e9190613b0a565b9450505050505b949350505050565b608a60009054906101000a900473ffffffffffffffffffffffffffffffffffffffff1681565b60008085118015610ac45750600084115b8015610ad6575060008363ffffffff16115b8015610b005750608260009054906101000a900463ffffffff1663ffffffff168363ffffffff1611155b8015610b0c5750848211155b610b1557600080fd5b6000821415610b275760009050610c11565b84821415610b3757839050610c11565b608260009054906101000a900463ffffffff1663ffffffff168363ffffffff161415610b8957610b8285610b74848761199d90919063ffffffff16565b6119b390919063ffffffff16565b9050610c11565b60008060008488610b9a9190613b0a565b9050610bba8882608260009054906101000a900463ffffffff16896119c9565b80935081945050506000610bd7848961199d90919063ffffffff16565b905060008360ff1689901b9050610c0985610bfb8385611b2490919063ffffffff16565b6119b390919063ffffffff16565b955050505050505b949350505050565b60018054610c2690613cb2565b80601f0160208091040260200160405190810160405280929190818152602001828054610c5290613cb2565b8015610c9f5780601f10610c7457610100808354040283529160200191610c9f565b820191906000526020600020905b815481529060010190602001808311610c8257829003601f168201915b505050505081565b60845481565b60885481565b60855481565b610cc161197f565b73ffffffffffffffffffffffffffffffffffffffff16610cdf610f72565b73ffffffffffffffffffffffffffffffffffffffff1614610d35576040517f08c379a0000000000000000000000000000000000000000000000000000000008152600401610d2c9061392f565b60405180910390fd5b600073ffffffffffffffffffffffffffffffffffffffff1660008054906101000a900473ffffffffffffffffffffffffffffffffffffffff1673ffffffffffffffffffffffffffffffffffffffff167f8be0079c531659141344cd1fd0a4f28419497f9722a3daafe3b4186f6b6457e060405160405180910390a360008060006101000a81548173ffffffffffffffffffffffffffffffffffffffff021916908373ffffffffffffffffffffffffffffffffffffffff160217905550565b610dfb61197f565b73ffffffffffffffffffffffffffffffffffffffff16610e19610f72565b73ffffffffffffffffffffffffffffffffffffffff1614610e6f576040517f08c379a0000000000000000000000000000000000000000000000000000000008152600401610e669061392f565b60405180910390fd5b6000608c8381548110610e8557610e84613e1a565b5b9060005260206000200160009054906101000a900473ffffffffffffffffffffffffffffffffffffffff1690508073ffffffffffffffffffffffffffffffffffffffff1663a9059cbb85846040518363ffffffff1660e01b8152600401610eed929190613853565b602060405180830381600087803b158015610f0757600080fd5b505af1158015610f1b573d6000803e3d6000fd5b505050506040513d601f19601f82011682018060405250810190610f3f919061357c565b5050505050565b608b60009054906101000a900473ffffffffffffffffffffffffffffffffffffffff1681565b60835481565b60008060009054906101000a900473ffffffffffffffffffffffffffffffffffffffff16905090565b6000610fa6826116ce565b9050608b60009054906101000a900473ffffffffffffffffffffffffffffffffffffffff1673ffffffffffffffffffffffffffffffffffffffff16639c94f65133846040518363ffffffff1660e01b8152600401611005929190613853565b600060405180830381600087803b15801561101f57600080fd5b505af1158015611033573d6000803e3d6000fd5b50505050600061104e608754836119b390919063ffffffff16565b905060005b60875481101561120057600073ffffffffffffffffffffffffffffffffffffffff16608c828154811061108957611088613e1a565b5b9060005260206000200160009054906101000a900473ffffffffffffffffffffffffffffffffffffffff1673ffffffffffffffffffffffffffffffffffffffff16141561111c573373ffffffffffffffffffffffffffffffffffffffff166108fc839081150290604051600060405180830381858888f19350505050158015611116573d6000803e3d6000fd5b506111ef565b6000608c828154811061113257611131613e1a565b5b9060005260206000200160009054906101000a900473ffffffffffffffffffffffffffffffffffffffff1690508073ffffffffffffffffffffffffffffffffffffffff1663a9059cbb33856040518363ffffffff1660e01b815260040161119a929190613853565b602060405180830381600087803b1580156111b457600080fd5b505af11580156111c8573d6000803e3d6000fd5b505050506040513d601f19601f820116820180604052508101906111ec919061357c565b50505b806111f990613ce4565b9050611053565b50505050565b608c818154811061121657600080fd5b906000526020600020016000915054906101000a900473ffffffffffffffffffffffffffffffffffffffff1681565b608260049054906101000a900463ffffffff1681565b60875481565b61126961197f565b73ffffffffffffffffffffffffffffffffffffffff16611287610f72565b73ffffffffffffffffffffffffffffffffffffffff16146112dd576040517f08c379a00000000000000000000000000000000000000000000000000000000081526004016112d49061392f565b60405180910390fd5b608760008154809291906112f090613ce4565b919050555080608c6087548154811061130c5761130b613e1a565b5b9060005260206000200160006101000a81548173ffffffffffffffffffffffffffffffffffffffff021916908373ffffffffffffffffffffffffffffffffffffffff16021790555050565b6000611362836115b4565b90506000808314156113b8573484146113b0576040517f08c379a00000000000000000000000000000000000000000000000000000000081526004016113a79061390f565b60405180910390fd5b349050611490565b6000608c84815481106113ce576113cd613e1a565b5b9060005260206000200160009054906101000a900473ffffffffffffffffffffffffffffffffffffffff1690508491508073ffffffffffffffffffffffffffffffffffffffff166323b872dd3330856040518463ffffffff1660e01b815260040161143b939291906137f3565b602060405180830381600087803b15801561145557600080fd5b505af1158015611469573d6000803e3d6000fd5b505050506040513d601f19601f8201168201806040525081019061148d919061357c565b50505b608b60009054906101000a900473ffffffffffffffffffffffffffffffffffffffff1673ffffffffffffffffffffffffffffffffffffffff166383ac74f930836040518363ffffffff1660e01b81526004016114ed929190613853565b600060405180830381600087803b15801561150757600080fd5b505af115801561151b573d6000803e3d6000fd5b50505050608b60009054906101000a900473ffffffffffffffffffffffffffffffffffffffff1673ffffffffffffffffffffffffffffffffffffffff166382f4f5b433846040518363ffffffff1660e01b815260040161157c929190613853565b600060405180830381600087803b15801561159657600080fd5b505af11580156115aa573d6000803e3d6000fd5b5050505050505050565b6000806115bf6107ba565b90506000608a60009054906101000a900473ffffffffffffffffffffffffffffffffffffffff1673ffffffffffffffffffffffffffffffffffffffff166318160ddd6040518163ffffffff1660e01b815260040160206040518083038186803b15801561162b57600080fd5b505afa15801561163f573d6000803e3d6000fd5b505050506040513d601f19601f8201168201806040525081019061166391906135d6565b905060006116858284608260049054906101000a900463ffffffff168861095b565b9050809350505050919050565b608260009054906101000a900463ffffffff1681565b608960009054906101000a900473ffffffffffffffffffffffffffffffffffffffff1681565b6000806116d96107ba565b90506000608a60009054906101000a900473ffffffffffffffffffffffffffffffffffffffff1673ffffffffffffffffffffffffffffffffffffffff166318160ddd6040518163ffffffff1660e01b815260040160206040518083038186803b15801561174557600080fd5b505afa158015611759573d6000803e3d6000fd5b505050506040513d601f19601f8201168201806040525081019061177d91906135d6565b9050600061179f8284608260049054906101000a900463ffffffff1688610ab3565b90506117c960646117bb6084548461199d90919063ffffffff16565b6119b390919063ffffffff16565b9050809350505050919050565b6117de61197f565b73ffffffffffffffffffffffffffffffffffffffff166117fc610f72565b73ffffffffffffffffffffffffffffffffffffffff1614611852576040517f08c379a00000000000000000000000000000000000000000000000000000000081526004016118499061392f565b60405180910390fd5b600073ffffffffffffffffffffffffffffffffffffffff168173ffffffffffffffffffffffffffffffffffffffff1614156118c2576040517f08c379a00000000000000000000000000000000000000000000000000000000081526004016118b9906138ef565b60405180910390fd5b8073ffffffffffffffffffffffffffffffffffffffff1660008054906101000a900473ffffffffffffffffffffffffffffffffffffffff1673ffffffffffffffffffffffffffffffffffffffff167f8be0079c531659141344cd1fd0a4f28419497f9722a3daafe3b4186f6b6457e060405160405180910390a3806000806101000a81548173ffffffffffffffffffffffffffffffffffffffff021916908373ffffffffffffffffffffffffffffffffffffffff16021790555050565b600033905090565b6000818361199591906139c1565b905092915050565b600081836119ab9190613ab0565b905092915050565b600081836119c19190613a4e565b905092915050565b60008070020000000000000000000000000000000086106119ed576119ec613d5e565b5b84861015611a30576040517f08c379a0000000000000000000000000000000000000000000000000000000008152600401611a279061394f565b60405180910390fd5b600080866f8000000000000000000000000000000089611a509190613ab0565b611a5a9190613a4e565b905070015bf0a8b1457695355fb8ac404e7a79e3811015611a8557611a7e81611b3a565b9150611a91565b611a8e816122b3565b91505b60008563ffffffff168763ffffffff1684611aac9190613ab0565b611ab69190613a4e565b9050700800000000000000000000000000000000811015611ae857611ada81612413565b607f94509450505050611b1b565b6000611af382612c17565b9050611b1181607f611b059190613b3e565b60ff1683901c82612cf9565b8195509550505050505b94509492505050565b60008183611b329190613b0a565b905092915050565b6000806000905060008060006fd3094c70f034de4b96ff7d5b6f99fcd88610611bb5576f4000000000000000000000000000000084611b7991906139c1565b93506fd3094c70f034de4b96ff7d5b6f99fcd86f8000000000000000000000000000000087611ba89190613ab0565b611bb29190613a4e565b95505b6fa45af1e1f40c333b3de1db4dd55f29a78610611c24576f2000000000000000000000000000000084611be891906139c1565b93506fa45af1e1f40c333b3de1db4dd55f29a76f8000000000000000000000000000000087611c179190613ab0565b611c219190613a4e565b95505b6f910b022db7ae67ce76b441c27035c6a18610611c93576f1000000000000000000000000000000084611c5791906139c1565b93506f910b022db7ae67ce76b441c27035c6a16f8000000000000000000000000000000087611c869190613ab0565b611c909190613a4e565b95505b6f88415abbe9a76bead8d00cf112e4d4a88610611d02576f0800000000000000000000000000000084611cc691906139c1565b93506f88415abbe9a76bead8d00cf112e4d4a86f8000000000000000000000000000000087611cf59190613ab0565b611cff9190613a4e565b95505b6f84102b00893f64c705e841d5d4064bd38610611d71576f0400000000000000000000000000000084611d3591906139c1565b93506f84102b00893f64c705e841d5d4064bd36f8000000000000000000000000000000087611d649190613ab0565b611d6e9190613a4e565b95505b6f8204055aaef1c8bd5c3259f4822735a28610611de0576f0200000000000000000000000000000084611da491906139c1565b93506f8204055aaef1c8bd5c3259f4822735a26f8000000000000000000000000000000087611dd39190613ab0565b611ddd9190613a4e565b95505b6f810100ab00222d861931c15e39b44e998610611e4f576f0100000000000000000000000000000084611e1391906139c1565b93506f810100ab00222d861931c15e39b44e996f8000000000000000000000000000000087611e429190613ab0565b611e4c9190613a4e565b95505b6f808040155aabbbe9451521693554f7338610611ebd576e80000000000000000000000000000084611e8191906139c1565b93506f808040155aabbbe9451521693554f7336f8000000000000000000000000000000087611eb09190613ab0565b611eba9190613a4e565b95505b6f8000000000000000000000000000000086611ed99190613b0a565b92508291506f800000000000000000000000000000008384611efb9190613ab0565b611f059190613a4e565b905070010000000000000000000000000000000083700100000000000000000000000000000000611f369190613b0a565b83611f419190613ab0565b611f4b9190613a4e565b84611f5691906139c1565b93506f800000000000000000000000000000008183611f759190613ab0565b611f7f9190613a4e565b9150700200000000000000000000000000000000836faaaaaaaaaaaaaaaaaaaaaaaaaaaaaaaa611faf9190613b0a565b83611fba9190613ab0565b611fc49190613a4e565b84611fcf91906139c1565b93506f800000000000000000000000000000008183611fee9190613ab0565b611ff89190613a4e565b9150700300000000000000000000000000000000836f999999999999999999999999999999996120289190613b0a565b836120339190613ab0565b61203d9190613a4e565b8461204891906139c1565b93506f8000000000000000000000000000000081836120679190613ab0565b6120719190613a4e565b9150700400000000000000000000000000000000836f924924924924924924924924924924926120a19190613b0a565b836120ac9190613ab0565b6120b69190613a4e565b846120c191906139c1565b93506f8000000000000000000000000000000081836120e09190613ab0565b6120ea9190613a4e565b9150700500000000000000000000000000000000836f8e38e38e38e38e38e38e38e38e38e38e61211a9190613b0a565b836121259190613ab0565b61212f9190613a4e565b8461213a91906139c1565b93506f8000000000000000000000000000000081836121599190613ab0565b6121639190613a4e565b9150700600000000000000000000000000000000836f8ba2e8ba2e8ba2e8ba2e8ba2e8ba2e8b6121939190613b0a565b8361219e9190613ab0565b6121a89190613a4e565b846121b391906139c1565b93506f8000000000000000000000000000000081836121d29190613ab0565b6121dc9190613a4e565b9150700700000000000000000000000000000000836f89d89d89d89d89d89d89d89d89d89d8961220c9190613b0a565b836122179190613ab0565b6122219190613a4e565b8461222c91906139c1565b93506f80000000000000000000000000000000818361224b9190613ab0565b6122559190613a4e565b9150700800000000000000000000000000000000836f888888888888888888888888888888886122859190613b0a565b836122909190613ab0565b61229a9190613a4e565b846122a591906139c1565b935083945050505050919050565b600080600090506000839050700100000000000000000000000000000000811061232b5760006122fd6f80000000000000000000000000000000836122f89190613a4e565b613408565b90508060ff1682901c91506f800000000000000000000000000000008160ff166123279190613ab0565b9250505b6f800000000000000000000000000000008111156123d3576000607f90505b60008160ff1611156123d1576f8000000000000000000000000000000082836123739190613ab0565b61237d9190613a4e565b915070010000000000000000000000000000000082106123c057600182901c91506001816123ab9190613b3e565b60ff166001901b836123bd91906139c1565b92505b806123ca90613c88565b905061234a565b505b6f05b9de1d10bf4103d647b0955897ba806f03f80fe03f80fe03f80fe03f80fe03f8836124009190613ab0565b61240a9190613a4e565b92505050919050565b600080600090506000806f10000000000000000000000000000000856124399190613d2d565b91508190506f80000000000000000000000000000000828261245b9190613ab0565b6124659190613a4e565b90506710e1b3be415a00008161247b9190613ab0565b8361248691906139c1565b92506f8000000000000000000000000000000082826124a59190613ab0565b6124af9190613a4e565b90506705a0913f6b1e0000816124c59190613ab0565b836124d091906139c1565b92506f8000000000000000000000000000000082826124ef9190613ab0565b6124f99190613a4e565b9050670168244fdac780008161250f9190613ab0565b8361251a91906139c1565b92506f8000000000000000000000000000000082826125399190613ab0565b6125439190613a4e565b9050664807432bc18000816125589190613ab0565b8361256391906139c1565b92506f8000000000000000000000000000000082826125829190613ab0565b61258c9190613a4e565b9050660c0135dca04000816125a19190613ab0565b836125ac91906139c1565b92506f8000000000000000000000000000000082826125cb9190613ab0565b6125d59190613a4e565b90506601b707b1cdc000816125ea9190613ab0565b836125f591906139c1565b92506f8000000000000000000000000000000082826126149190613ab0565b61261e9190613a4e565b90506536e0f639b800816126329190613ab0565b8361263d91906139c1565b92506f80000000000000000000000000000000828261265c9190613ab0565b6126669190613a4e565b9050650618fee9f8008161267a9190613ab0565b8361268591906139c1565b92506f8000000000000000000000000000000082826126a49190613ab0565b6126ae9190613a4e565b9050649c197dcc00816126c19190613ab0565b836126cc91906139c1565b92506f8000000000000000000000000000000082826126eb9190613ab0565b6126f59190613a4e565b9050640e30dce400816127089190613ab0565b8361271391906139c1565b92506f8000000000000000000000000000000082826127329190613ab0565b61273c9190613a4e565b905064012ebd13008161274f9190613ab0565b8361275a91906139c1565b92506f8000000000000000000000000000000082826127799190613ab0565b6127839190613a4e565b90506317499f00816127959190613ab0565b836127a091906139c1565b92506f8000000000000000000000000000000082826127bf9190613ab0565b6127c99190613a4e565b90506301a9d480816127db9190613ab0565b836127e691906139c1565b92506f8000000000000000000000000000000082826128059190613ab0565b61280f9190613a4e565b9050621c6380816128209190613ab0565b8361282b91906139c1565b92506f80000000000000000000000000000000828261284a9190613ab0565b6128549190613a4e565b90506201c638816128659190613ab0565b8361287091906139c1565b92506f80000000000000000000000000000000828261288f9190613ab0565b6128999190613a4e565b9050611ab8816128a99190613ab0565b836128b491906139c1565b92506f8000000000000000000000000000000082826128d39190613ab0565b6128dd9190613a4e565b905061017c816128ed9190613ab0565b836128f891906139c1565b92506f8000000000000000000000000000000082826129179190613ab0565b6129219190613a4e565b90506014816129309190613ab0565b8361293b91906139c1565b92506f80000000000000000000000000000000828261295a9190613ab0565b6129649190613a4e565b90506001816129739190613ab0565b8361297e91906139c1565b92506f80000000000000000000000000000000826721c3677c82b40000856129a69190613a4e565b6129b091906139c1565b6129ba91906139c1565b925060006f10000000000000000000000000000000861614612a125770018ebef9eac820ae8682b9793ac6d1e7767001c3d6a24ed82218787d624d3e5eba95f984612a059190613ab0565b612a0f9190613a4e565b92505b60006f20000000000000000000000000000000861614612a68577001368b2fc6f9609fe7aceb46aa619baed470018ebef9eac820ae8682b9793ac6d1e77884612a5b9190613ab0565b612a659190613a4e565b92505b60006f40000000000000000000000000000000861614612abd576fbc5ab1b16779be3575bd8f0520a9f21f7001368b2fc6f9609fe7aceb46aa619baed584612ab09190613ab0565b612aba9190613a4e565b92505b60006f80000000000000000000000000000000861614612b11576f454aaa8efe072e7f6ddbab84b40a55c96fbc5ab1b16779be3575bd8f0520a9f21e84612b049190613ab0565b612b0e9190613a4e565b92505b6000700100000000000000000000000000000000861614612b66576f0960aadc109e7a3bf4578099615711ea6f454aaa8efe072e7f6ddbab84b40a55c584612b599190613ab0565b612b639190613a4e565b92505b6000700200000000000000000000000000000000861614612bba576e2bf84208204f5977f9a8cf01fdce3d6f0960aadc109e7a3bf4578099615711d784612bad9190613ab0565b612bb79190613a4e565b92505b6000700400000000000000000000000000000000861614612c0c576d03c6ab775dd0b95b4cbee7e65d116e2bf84208204f5977f9a8cf01fdc30784612bff9190613ab0565b612c099190613a4e565b92505b829350505050919050565b600080602090506000607f90505b8060ff16600183612c369190613a17565b60ff161015612c8c57600060028284612c4f9190613a17565b612c599190613a7f565b90508460028260ff1660808110612c7357612c72613e1a565b5b015410612c8257809250612c86565b8091505b50612c25565b8360028260ff1660808110612ca457612ca3613e1a565b5b015410612cb5578092505050612cf4565b8360028360ff1660808110612ccd57612ccc613e1a565b5b015410612cde578192505050612cf4565b6000612ced57612cec613d5e565b5b6000925050505b919050565b60008083905060008360ff168583612d119190613ab0565b901c91506f03442c4e6074a82f1797f72ac000000082612d319190613ab0565b81612d3c91906139c1565b90508360ff168583612d4e9190613ab0565b901c91506f0116b96f757c380fb287fd0e4000000082612d6e9190613ab0565b81612d7991906139c1565b90508360ff168583612d8b9190613ab0565b901c91506e45ae5bdd5f0e03eca1ff439000000082612daa9190613ab0565b81612db591906139c1565b90508360ff168583612dc79190613ab0565b901c91506e0defabf91302cd95b9ffda5000000082612de69190613ab0565b81612df191906139c1565b90508360ff168583612e039190613ab0565b901c91506e02529ca9832b22439efff9b800000082612e229190613ab0565b81612e2d91906139c1565b90508360ff168583612e3f9190613ab0565b901c91506d54f1cf12bd04e516b6da8800000082612e5d9190613ab0565b81612e6891906139c1565b90508360ff168583612e7a9190613ab0565b901c91506d0a9e39e257a09ca2d6db5100000082612e989190613ab0565b81612ea391906139c1565b90508360ff168583612eb59190613ab0565b901c91506d012e066e7b839fa050c30900000082612ed39190613ab0565b81612ede91906139c1565b90508360ff168583612ef09190613ab0565b901c91506c1e33d7d926c329a1ad1a80000082612f0d9190613ab0565b81612f1891906139c1565b90508360ff168583612f2a9190613ab0565b901c91506c02bee513bdb4a6b19b5f80000082612f479190613ab0565b81612f5291906139c1565b90508360ff168583612f649190613ab0565b901c91506b3a9316fa79b88eccf2a0000082612f809190613ab0565b81612f8b91906139c1565b90508360ff168583612f9d9190613ab0565b901c91506b048177ebe1fa81237520000082612fb99190613ab0565b81612fc491906139c1565b90508360ff168583612fd69190613ab0565b901c91506a5263fe90242dcbacf0000082612ff19190613ab0565b81612ffc91906139c1565b90508360ff16858361300e9190613ab0565b901c91506a057e22099c030d94100000826130299190613ab0565b8161303491906139c1565b90508360ff1685836130469190613ab0565b901c91506957e22099c030d9410000826130609190613ab0565b8161306b91906139c1565b90508360ff16858361307d9190613ab0565b901c915069052b6b54569976310000826130979190613ab0565b816130a291906139c1565b90508360ff1685836130b49190613ab0565b901c9150684985f67696bf748000826130cd9190613ab0565b816130d891906139c1565b90508360ff1685836130ea9190613ab0565b901c91506803dea12ea99e498000826131039190613ab0565b8161310e91906139c1565b90508360ff1685836131209190613ab0565b901c91506731880f2214b6e000826131389190613ab0565b8161314391906139c1565b90508360ff1685836131559190613ab0565b901c915067025bcff56eb360008261316d9190613ab0565b8161317891906139c1565b90508360ff16858361318a9190613ab0565b901c9150661b722e10ab1000826131a19190613ab0565b816131ac91906139c1565b90508360ff1685836131be9190613ab0565b901c91506601317c70077000826131d59190613ab0565b816131e091906139c1565b90508360ff1685836131f29190613ab0565b901c9150650cba84aafa00826132089190613ab0565b8161321391906139c1565b90508360ff1685836132259190613ab0565b901c91506482573a0a008261323a9190613ab0565b8161324591906139c1565b90508360ff1685836132579190613ab0565b901c91506405035ad9008261326c9190613ab0565b8161327791906139c1565b90508360ff1685836132899190613ab0565b901c9150632f881b008261329d9190613ab0565b816132a891906139c1565b90508360ff1685836132ba9190613ab0565b901c91506301b29340826132ce9190613ab0565b816132d991906139c1565b90508360ff1685836132eb9190613ab0565b901c9150620efc40826132fe9190613ab0565b8161330991906139c1565b90508360ff16858361331b9190613ab0565b901c9150617fe08261332d9190613ab0565b8161333891906139c1565b90508360ff16858361334a9190613ab0565b901c91506104208261335c9190613ab0565b8161336791906139c1565b90508360ff1685836133799190613ab0565b901c915060218261338a9190613ab0565b8161339591906139c1565b90508360ff1685836133a79190613ab0565b901c91506001826133b89190613ab0565b816133c391906139c1565b90508360ff166001901b856f0688589cc0e9505e2f2fee5580000000836133ea9190613a4e565b6133f491906139c1565b6133fe91906139c1565b9250505092915050565b600080600090506000839050610100811015613448575b600181111561344357600181901c905060018261343c9190613a17565b915061341f565b613489565b6000608090505b60008160ff161115613487578060ff166001901b8210613478578060ff1682901c915080831792505b60018160ff16901c905061344f565b505b8192505050919050565b6000813590506134a281613f4f565b92915050565b6000815190506134b781613f66565b92915050565b6000813590506134cc81613f7d565b92915050565b6000815190506134e181613f7d565b92915050565b6000813590506134f681613f94565b92915050565b60006020828403121561351257613511613e49565b5b600061352084828501613493565b91505092915050565b60008060006060848603121561354257613541613e49565b5b600061355086828701613493565b9350506020613561868287016134bd565b9250506040613572868287016134bd565b9150509250925092565b60006020828403121561359257613591613e49565b5b60006135a0848285016134a8565b91505092915050565b6000602082840312156135bf576135be613e49565b5b60006135cd848285016134bd565b91505092915050565b6000602082840312156135ec576135eb613e49565b5b60006135fa848285016134d2565b91505092915050565b6000806040838503121561361a57613619613e49565b5b6000613628858286016134bd565b9250506020613639858286016134bd565b9150509250929050565b6000806000806080858703121561365d5761365c613e49565b5b600061366b878288016134bd565b945050602061367c878288016134bd565b935050604061368d878288016134e7565b925050606061369e878288016134bd565b91505092959194509250565b6136b381613b72565b82525050565b6136c281613bd7565b82525050565b6136d181613bfb565b82525050565b6136e081613c1f565b82525050565b6136ef81613c43565b82525050565b6000613700826139a5565b61370a81856139b0565b935061371a818560208601613c55565b61372381613e4e565b840191505092915050565b600061373b6026836139b0565b915061374682613e5f565b604082019050919050565b600061375e6023836139b0565b915061376982613eae565b604082019050919050565b60006137816020836139b0565b915061378c82613efd565b602082019050919050565b60006137a4601c836139b0565b91506137af82613f26565b602082019050919050565b6137c381613bb0565b82525050565b6137d281613bba565b82525050565b60006020820190506137ed60008301846136aa565b92915050565b600060608201905061380860008301866136aa565b61381560208301856136aa565b61382260408301846137ba565b949350505050565b600060408201905061383f60008301856136aa565b61384c60208301846136e6565b9392505050565b600060408201905061386860008301856136aa565b61387560208301846137ba565b9392505050565b600060208201905061389160008301846136b9565b92915050565b60006020820190506138ac60008301846136c8565b92915050565b60006020820190506138c760008301846136d7565b92915050565b600060208201905081810360008301526138e781846136f5565b905092915050565b600060208201905081810360008301526139088161372e565b9050919050565b6000602082019050818103600083015261392881613751565b9050919050565b6000602082019050818103600083015261394881613774565b9050919050565b6000602082019050818103600083015261396881613797565b9050919050565b600060208201905061398460008301846137ba565b92915050565b600060208201905061399f60008301846137c9565b92915050565b600081519050919050565b600082825260208201905092915050565b60006139cc82613bb0565b91506139d783613bb0565b9250827fffffffffffffffffffffffffffffffffffffffffffffffffffffffffffffffff03821115613a0c57613a0b613d8d565b5b828201905092915050565b6000613a2282613bca565b9150613a2d83613bca565b92508260ff03821115613a4357613a42613d8d565b5b828201905092915050565b6000613a5982613bb0565b9150613a6483613bb0565b925082613a7457613a73613dbc565b5b828204905092915050565b6000613a8a82613bca565b9150613a9583613bca565b925082613aa557613aa4613dbc565b5b828204905092915050565b6000613abb82613bb0565b9150613ac683613bb0565b9250817fffffffffffffffffffffffffffffffffffffffffffffffffffffffffffffffff0483118215151615613aff57613afe613d8d565b5b828202905092915050565b6000613b1582613bb0565b9150613b2083613bb0565b925082821015613b3357613b32613d8d565b5b828203905092915050565b6000613b4982613bca565b9150613b5483613bca565b925082821015613b6757613b66613d8d565b5b828203905092915050565b6000613b7d82613b90565b9050919050565b60008115159050919050565b600073ffffffffffffffffffffffffffffffffffffffff82169050919050565b6000819050919050565b600063ffffffff82169050919050565b600060ff82169050919050565b6000613be282613be9565b9050919050565b6000613bf482613b90565b9050919050565b6000613c0682613c0d565b9050919050565b6000613c1882613b90565b9050919050565b6000613c2a82613c31565b9050919050565b6000613c3c82613b90565b9050919050565b6000613c4e82613bb0565b9050919050565b60005b83811015613c73578082015181840152602081019050613c58565b83811115613c82576000848401525b50505050565b6000613c9382613bca565b91506000821415613ca757613ca6613d8d565b5b600182039050919050565b60006002820490506001821680613cca57607f821691505b60208210811415613cde57613cdd613deb565b5b50919050565b6000613cef82613bb0565b91507fffffffffffffffffffffffffffffffffffffffffffffffffffffffffffffffff821415613d2257613d21613d8d565b5b600182019050919050565b6000613d3882613bb0565b9150613d4383613bb0565b925082613d5357613d52613dbc565b5b828206905092915050565b7f4e487b7100000000000000000000000000000000000000000000000000000000600052600160045260246000fd5b7f4e487b7100000000000000000000000000000000000000000000000000000000600052601160045260246000fd5b7f4e487b7100000000000000000000000000000000000000000000000000000000600052601260045260246000fd5b7f4e487b7100000000000000000000000000000000000000000000000000000000600052602260045260246000fd5b7f4e487b7100000000000000000000000000000000000000000000000000000000600052603260045260246000fd5b600080fd5b6000601f19601f8301169050919050565b7f4f776e61626c653a206e6577206f776e657220697320746865207a65726f206160008201527f6464726573730000000000000000000000000000000000000000000000000000602082015250565b7f6d73672076616c756520646f65736e74206d6174636820696e70757420616d6f60008201527f756e740000000000000000000000000000000000000000000000000000000000602082015250565b7f4f776e61626c653a2063616c6c6572206973206e6f7420746865206f776e6572600082015250565b7f4261736573203c203120617265206e6f7420737570706f727465642e00000000600082015250565b613f5881613b72565b8114613f6357600080fd5b50565b613f6f81613b84565b8114613f7a57600080fd5b50565b613f8681613bb0565b8114613f9157600080fd5b50565b613f9d81613bba565b8114613fa857600080fd5b5056fea26469706673582212200ee0ac46563657722d058ee4dbcb94d590682587ab8eb61db2cf6cfe61cc21d764736f6c63430008060033",
  "linkReferences": {},
  "deployedLinkReferences": {}
}