{
  "_format": "hh-sol-artifact-1",
  "contractName": "DecentraStock",
  "sourceName": "contracts/DecentraStock.sol",
  "abi": [
    {
      "inputs": [],
      "stateMutability": "nonpayable",
      "type": "constructor"
    },
    {
      "anonymous": false,
      "inputs": [
        {
          "indexed": true,
          "internalType": "address",
          "name": "owner",
          "type": "address"
        },
        {
          "indexed": true,
          "internalType": "address",
          "name": "spender",
          "type": "address"
        },
        {
          "indexed": false,
          "internalType": "uint256",
          "name": "value",
          "type": "uint256"
        }
      ],
      "name": "Approval",
      "type": "event"
    },
    {
      "anonymous": false,
      "inputs": [
        {
          "indexed": true,
          "internalType": "address",
          "name": "previousOwner",
          "type": "address"
        },
        {
          "indexed": true,
          "internalType": "address",
          "name": "newOwner",
          "type": "address"
        }
      ],
      "name": "OwnershipTransferred",
      "type": "event"
    },
    {
      "anonymous": false,
      "inputs": [
        {
          "indexed": false,
          "internalType": "address",
          "name": "_to",
          "type": "address"
        },
        {
          "indexed": false,
          "internalType": "uint256",
          "name": "_amount",
          "type": "uint256"
        }
      ],
      "name": "StockIssued",
      "type": "event"
    },
    {
      "anonymous": false,
      "inputs": [
        {
          "indexed": true,
          "internalType": "address",
          "name": "from",
          "type": "address"
        },
        {
          "indexed": true,
          "internalType": "address",
          "name": "to",
          "type": "address"
        },
        {
          "indexed": false,
          "internalType": "uint256",
          "name": "value",
          "type": "uint256"
        }
      ],
      "name": "Transfer",
      "type": "event"
    },
    {
      "inputs": [
        {
          "internalType": "address",
          "name": "owner",
          "type": "address"
        },
        {
          "internalType": "address",
          "name": "spender",
          "type": "address"
        }
      ],
      "name": "allowance",
      "outputs": [
        {
          "internalType": "uint256",
          "name": "",
          "type": "uint256"
        }
      ],
      "stateMutability": "view",
      "type": "function"
    },
    {
      "inputs": [
        {
          "internalType": "address",
          "name": "spender",
          "type": "address"
        },
        {
          "internalType": "uint256",
          "name": "amount",
          "type": "uint256"
        }
      ],
      "name": "approve",
      "outputs": [
        {
          "internalType": "bool",
          "name": "",
          "type": "bool"
        }
      ],
      "stateMutability": "nonpayable",
      "type": "function"
    },
    {
      "inputs": [
        {
          "internalType": "address",
          "name": "account",
          "type": "address"
        }
      ],
      "name": "balanceOf",
      "outputs": [
        {
          "internalType": "uint256",
          "name": "",
          "type": "uint256"
        }
      ],
      "stateMutability": "view",
      "type": "function"
    },
    {
      "inputs": [
        {
          "internalType": "address",
          "name": "_from",
          "type": "address"
        },
        {
          "internalType": "uint256",
          "name": "_amount",
          "type": "uint256"
        }
      ],
      "name": "burnStock",
      "outputs": [],
      "stateMutability": "nonpayable",
      "type": "function"
    },
    {
      "inputs": [],
      "name": "decimals",
      "outputs": [
        {
          "internalType": "uint8",
          "name": "",
          "type": "uint8"
        }
      ],
      "stateMutability": "view",
      "type": "function"
    },
    {
      "inputs": [
        {
          "internalType": "address",
          "name": "spender",
          "type": "address"
        },
        {
          "internalType": "uint256",
          "name": "subtractedValue",
          "type": "uint256"
        }
      ],
      "name": "decreaseAllowance",
      "outputs": [
        {
          "internalType": "bool",
          "name": "",
          "type": "bool"
        }
      ],
      "stateMutability": "nonpayable",
      "type": "function"
    },
    {
      "inputs": [
        {
          "internalType": "address",
          "name": "spender",
          "type": "address"
        },
        {
          "internalType": "uint256",
          "name": "addedValue",
          "type": "uint256"
        }
      ],
      "name": "increaseAllowance",
      "outputs": [
        {
          "internalType": "bool",
          "name": "",
          "type": "bool"
        }
      ],
      "stateMutability": "nonpayable",
      "type": "function"
    },
    {
      "inputs": [
        {
          "internalType": "address",
          "name": "_to",
          "type": "address"
        },
        {
          "internalType": "uint256",
          "name": "_amount",
          "type": "uint256"
        }
      ],
      "name": "issueStock",
      "outputs": [],
      "stateMutability": "nonpayable",
      "type": "function"
    },
    {
      "inputs": [],
      "name": "name",
      "outputs": [
        {
          "internalType": "string",
          "name": "",
          "type": "string"
        }
      ],
      "stateMutability": "view",
      "type": "function"
    },
    {
      "inputs": [],
      "name": "owner",
      "outputs": [
        {
          "internalType": "address",
          "name": "",
          "type": "address"
        }
      ],
      "stateMutability": "view",
      "type": "function"
    },
    {
      "inputs": [],
      "name": "renounceOwnership",
      "outputs": [],
      "stateMutability": "nonpayable",
      "type": "function"
    },
    {
      "inputs": [],
      "name": "symbol",
      "outputs": [
        {
          "internalType": "string",
          "name": "",
          "type": "string"
        }
      ],
      "stateMutability": "view",
      "type": "function"
    },
    {
      "inputs": [],
      "name": "totalSupply",
      "outputs": [
        {
          "internalType": "uint256",
          "name": "",
          "type": "uint256"
        }
      ],
      "stateMutability": "view",
      "type": "function"
    },
    {
      "inputs": [
        {
          "internalType": "address",
          "name": "recipient",
          "type": "address"
        },
        {
          "internalType": "uint256",
          "name": "amount",
          "type": "uint256"
        }
      ],
      "name": "transfer",
      "outputs": [
        {
          "internalType": "bool",
          "name": "",
          "type": "bool"
        }
      ],
      "stateMutability": "nonpayable",
      "type": "function"
    },
    {
      "inputs": [
        {
          "internalType": "address",
          "name": "sender",
          "type": "address"
        },
        {
          "internalType": "address",
          "name": "recipient",
          "type": "address"
        },
        {
          "internalType": "uint256",
          "name": "amount",
          "type": "uint256"
        }
      ],
      "name": "transferFrom",
      "outputs": [
        {
          "internalType": "bool",
          "name": "",
          "type": "bool"
        }
      ],
      "stateMutability": "nonpayable",
      "type": "function"
    },
    {
      "inputs": [
        {
          "internalType": "address",
          "name": "newOwner",
          "type": "address"
        }
      ],
      "name": "transferOwnership",
      "outputs": [],
      "stateMutability": "nonpayable",
      "type": "function"
    }
  ],
  "bytecode": "0x60806040523480156200001157600080fd5b506040518060400160405280600d81526020017f446563656e74726153746f636b000000000000000000000000000000000000008152506040518060400160405280600381526020017f44534b00000000000000000000000000000000000000000000000000000000008152506000620000906200018660201b60201c565b9050806000806101000a81548173ffffffffffffffffffffffffffffffffffffffff021916908373ffffffffffffffffffffffffffffffffffffffff1602179055508073ffffffffffffffffffffffffffffffffffffffff16600073ffffffffffffffffffffffffffffffffffffffff167f8be0079c531659141344cd1fd0a4f28419497f9722a3daafe3b4186f6b6457e060405160405180910390a350816004908051906020019062000146929190620002f9565b5080600590805190602001906200015f929190620002f9565b50505062000180336b204fce5e3e250261100000006200018e60201b60201c565b62000555565b600033905090565b600073ffffffffffffffffffffffffffffffffffffffff168273ffffffffffffffffffffffffffffffffffffffff16141562000201576040517f08c379a0000000000000000000000000000000000000000000000000000000008152600401620001f890620003e1565b60405180910390fd5b6200021560008383620002f460201b60201c565b806003600082825462000229919062000431565b9250508190555080600160008473ffffffffffffffffffffffffffffffffffffffff1673ffffffffffffffffffffffffffffffffffffffff168152602001908152602001600020600082825462000281919062000431565b925050819055508173ffffffffffffffffffffffffffffffffffffffff16600073ffffffffffffffffffffffffffffffffffffffff167fddf252ad1be2c89b69c2b068fc378daa952ba7f163c4a11628f55a4df523b3ef83604051620002e8919062000403565b60405180910390a35050565b505050565b828054620003079062000498565b90600052602060002090601f0160209004810192826200032b576000855562000377565b82601f106200034657805160ff191683800117855562000377565b8280016001018555821562000377579182015b828111156200037657825182559160200191906001019062000359565b5b5090506200038691906200038a565b5090565b5b80821115620003a55760008160009055506001016200038b565b5090565b6000620003b8601f8362000420565b9150620003c5826200052c565b602082019050919050565b620003db816200048e565b82525050565b60006020820190508181036000830152620003fc81620003a9565b9050919050565b60006020820190506200041a6000830184620003d0565b92915050565b600082825260208201905092915050565b60006200043e826200048e565b91506200044b836200048e565b9250827fffffffffffffffffffffffffffffffffffffffffffffffffffffffffffffffff03821115620004835762000482620004ce565b5b828201905092915050565b6000819050919050565b60006002820490506001821680620004b157607f821691505b60208210811415620004c857620004c7620004fd565b5b50919050565b7f4e487b7100000000000000000000000000000000000000000000000000000000600052601160045260246000fd5b7f4e487b7100000000000000000000000000000000000000000000000000000000600052602260045260246000fd5b7f45524332303a206d696e7420746f20746865207a65726f206164647265737300600082015250565b611ec380620005656000396000f3fe608060405234801561001057600080fd5b50600436106101005760003560e01c80637468b9ba11610097578063a457c2d711610066578063a457c2d71461029d578063a9059cbb146102cd578063dd62ed3e146102fd578063f2fde38b1461032d57610100565b80637468b9ba146102295780638896637e146102455780638da5cb5b1461026157806395d89b411461027f57610100565b8063313ce567116100d3578063313ce567146101a157806339509351146101bf57806370a08231146101ef578063715018a61461021f57610100565b806306fdde0314610105578063095ea7b31461012357806318160ddd1461015357806323b872dd14610171575b600080fd5b61010d610349565b60405161011a919061174b565b60405180910390f35b61013d600480360381019061013891906114bc565b6103db565b60405161014a9190611730565b60405180910390f35b61015b6103f9565b60405161016891906118ed565b60405180910390f35b61018b60048036038101906101869190611469565b610403565b6040516101989190611730565b60405180910390f35b6101a9610504565b6040516101b69190611908565b60405180910390f35b6101d960048036038101906101d491906114bc565b61050d565b6040516101e69190611730565b60405180910390f35b610209600480360381019061020491906113fc565b6105b9565b60405161021691906118ed565b60405180910390f35b610227610602565b005b610243600480360381019061023e91906114bc565b61073c565b005b61025f600480360381019061025a91906114bc565b6107c6565b005b610269610850565b6040516102769190611715565b60405180910390f35b610287610879565b604051610294919061174b565b60405180910390f35b6102b760048036038101906102b291906114bc565b61090b565b6040516102c49190611730565b60405180910390f35b6102e760048036038101906102e291906114bc565b6109ff565b6040516102f49190611730565b60405180910390f35b61031760048036038101906103129190611429565b610a1d565b60405161032491906118ed565b60405180910390f35b610347600480360381019061034291906113fc565b610aa4565b005b60606004805461035890611a51565b80601f016020809104026020016040519081016040528092919081815260200182805461038490611a51565b80156103d15780601f106103a6576101008083540402835291602001916103d1565b820191906000526020600020905b8154815290600101906020018083116103b457829003601f168201915b5050505050905090565b60006103ef6103e8610c4d565b8484610c55565b6001905092915050565b6000600354905090565b6000610410848484610e20565b6000600260008673ffffffffffffffffffffffffffffffffffffffff1673ffffffffffffffffffffffffffffffffffffffff168152602001908152602001600020600061045b610c4d565b73ffffffffffffffffffffffffffffffffffffffff1673ffffffffffffffffffffffffffffffffffffffff168152602001908152602001600020549050828110156104db576040517f08c379a00000000000000000000000000000000000000000000000000000000081526004016104d29061180d565b60405180910390fd5b6104f8856104e7610c4d565b85846104f39190611995565b610c55565b60019150509392505050565b60006012905090565b60006105af61051a610c4d565b848460026000610528610c4d565b73ffffffffffffffffffffffffffffffffffffffff1673ffffffffffffffffffffffffffffffffffffffff16815260200190815260200160002060008873ffffffffffffffffffffffffffffffffffffffff1673ffffffffffffffffffffffffffffffffffffffff168152602001908152602001600020546105aa919061193f565b610c55565b6001905092915050565b6000600160008373ffffffffffffffffffffffffffffffffffffffff1673ffffffffffffffffffffffffffffffffffffffff168152602001908152602001600020549050919050565b61060a610c4d565b73ffffffffffffffffffffffffffffffffffffffff16610628610850565b73ffffffffffffffffffffffffffffffffffffffff161461067e576040517f08c379a00000000000000000000000000000000000000000000000000000000081526004016106759061182d565b60405180910390fd5b600073ffffffffffffffffffffffffffffffffffffffff1660008054906101000a900473ffffffffffffffffffffffffffffffffffffffff1673ffffffffffffffffffffffffffffffffffffffff167f8be0079c531659141344cd1fd0a4f28419497f9722a3daafe3b4186f6b6457e060405160405180910390a360008060006101000a81548173ffffffffffffffffffffffffffffffffffffffff021916908373ffffffffffffffffffffffffffffffffffffffff160217905550565b610744610c4d565b73ffffffffffffffffffffffffffffffffffffffff16610762610850565b73ffffffffffffffffffffffffffffffffffffffff16146107b8576040517f08c379a00000000000000000000000000000000000000000000000000000000081526004016107af9061182d565b60405180910390fd5b6107c282826110a2565b5050565b6107ce610c4d565b73ffffffffffffffffffffffffffffffffffffffff166107ec610850565b73ffffffffffffffffffffffffffffffffffffffff1614610842576040517f08c379a00000000000000000000000000000000000000000000000000000000081526004016108399061182d565b60405180910390fd5b61084c8282611278565b5050565b60008060009054906101000a900473ffffffffffffffffffffffffffffffffffffffff16905090565b60606005805461088890611a51565b80601f01602080910402602001604051908101604052809291908181526020018280546108b490611a51565b80156109015780601f106108d657610100808354040283529160200191610901565b820191906000526020600020905b8154815290600101906020018083116108e457829003601f168201915b5050505050905090565b6000806002600061091a610c4d565b73ffffffffffffffffffffffffffffffffffffffff1673ffffffffffffffffffffffffffffffffffffffff16815260200190815260200160002060008573ffffffffffffffffffffffffffffffffffffffff1673ffffffffffffffffffffffffffffffffffffffff168152602001908152602001600020549050828110156109d7576040517f08c379a00000000000000000000000000000000000000000000000000000000081526004016109ce906118ad565b60405180910390fd5b6109f46109e2610c4d565b8585846109ef9190611995565b610c55565b600191505092915050565b6000610a13610a0c610c4d565b8484610e20565b6001905092915050565b6000600260008473ffffffffffffffffffffffffffffffffffffffff1673ffffffffffffffffffffffffffffffffffffffff16815260200190815260200160002060008373ffffffffffffffffffffffffffffffffffffffff1673ffffffffffffffffffffffffffffffffffffffff16815260200190815260200160002054905092915050565b610aac610c4d565b73ffffffffffffffffffffffffffffffffffffffff16610aca610850565b73ffffffffffffffffffffffffffffffffffffffff1614610b20576040517f08c379a0000000000000000000000000000000000000000000000000000000008152600401610b179061182d565b60405180910390fd5b600073ffffffffffffffffffffffffffffffffffffffff168173ffffffffffffffffffffffffffffffffffffffff161415610b90576040517f08c379a0000000000000000000000000000000000000000000000000000000008152600401610b87906117ad565b60405180910390fd5b8073ffffffffffffffffffffffffffffffffffffffff1660008054906101000a900473ffffffffffffffffffffffffffffffffffffffff1673ffffffffffffffffffffffffffffffffffffffff167f8be0079c531659141344cd1fd0a4f28419497f9722a3daafe3b4186f6b6457e060405160405180910390a3806000806101000a81548173ffffffffffffffffffffffffffffffffffffffff021916908373ffffffffffffffffffffffffffffffffffffffff16021790555050565b600033905090565b600073ffffffffffffffffffffffffffffffffffffffff168373ffffffffffffffffffffffffffffffffffffffff161415610cc5576040517f08c379a0000000000000000000000000000000000000000000000000000000008152600401610cbc9061188d565b60405180910390fd5b600073ffffffffffffffffffffffffffffffffffffffff168273ffffffffffffffffffffffffffffffffffffffff161415610d35576040517f08c379a0000000000000000000000000000000000000000000000000000000008152600401610d2c906117cd565b60405180910390fd5b80600260008573ffffffffffffffffffffffffffffffffffffffff1673ffffffffffffffffffffffffffffffffffffffff16815260200190815260200160002060008473ffffffffffffffffffffffffffffffffffffffff1673ffffffffffffffffffffffffffffffffffffffff168152602001908152602001600020819055508173ffffffffffffffffffffffffffffffffffffffff168373ffffffffffffffffffffffffffffffffffffffff167f8c5be1e5ebec7d5bd14f71427d1e84f3dd0314c0f7b2291e5b200ac8c7c3b92583604051610e1391906118ed565b60405180910390a3505050565b600073ffffffffffffffffffffffffffffffffffffffff168373ffffffffffffffffffffffffffffffffffffffff161415610e90576040517f08c379a0000000000000000000000000000000000000000000000000000000008152600401610e879061186d565b60405180910390fd5b600073ffffffffffffffffffffffffffffffffffffffff168273ffffffffffffffffffffffffffffffffffffffff161415610f00576040517f08c379a0000000000000000000000000000000000000000000000000000000008152600401610ef79061176d565b60405180910390fd5b610f0b8383836113cd565b6000600160008573ffffffffffffffffffffffffffffffffffffffff1673ffffffffffffffffffffffffffffffffffffffff16815260200190815260200160002054905081811015610f92576040517f08c379a0000000000000000000000000000000000000000000000000000000008152600401610f89906117ed565b60405180910390fd5b8181610f9e9190611995565b600160008673ffffffffffffffffffffffffffffffffffffffff1673ffffffffffffffffffffffffffffffffffffffff1681526020019081526020016000208190555081600160008573ffffffffffffffffffffffffffffffffffffffff1673ffffffffffffffffffffffffffffffffffffffff1681526020019081526020016000206000828254611030919061193f565b925050819055508273ffffffffffffffffffffffffffffffffffffffff168473ffffffffffffffffffffffffffffffffffffffff167fddf252ad1be2c89b69c2b068fc378daa952ba7f163c4a11628f55a4df523b3ef8460405161109491906118ed565b60405180910390a350505050565b600073ffffffffffffffffffffffffffffffffffffffff168273ffffffffffffffffffffffffffffffffffffffff161415611112576040517f08c379a00000000000000000000000000000000000000000000000000000000081526004016111099061184d565b60405180910390fd5b61111e826000836113cd565b6000600160008473ffffffffffffffffffffffffffffffffffffffff1673ffffffffffffffffffffffffffffffffffffffff168152602001908152602001600020549050818110156111a5576040517f08c379a000000000000000000000000000000000000000000000000000000000815260040161119c9061178d565b60405180910390fd5b81816111b19190611995565b600160008573ffffffffffffffffffffffffffffffffffffffff1673ffffffffffffffffffffffffffffffffffffffff1681526020019081526020016000208190555081600360008282546112069190611995565b92505081905550600073ffffffffffffffffffffffffffffffffffffffff168373ffffffffffffffffffffffffffffffffffffffff167fddf252ad1be2c89b69c2b068fc378daa952ba7f163c4a11628f55a4df523b3ef8460405161126b91906118ed565b60405180910390a3505050565b600073ffffffffffffffffffffffffffffffffffffffff168273ffffffffffffffffffffffffffffffffffffffff1614156112e8576040517f08c379a00000000000000000000000000000000000000000000000000000000081526004016112df906118cd565b60405180910390fd5b6112f4600083836113cd565b8060036000828254611306919061193f565b9250508190555080600160008473ffffffffffffffffffffffffffffffffffffffff1673ffffffffffffffffffffffffffffffffffffffff168152602001908152602001600020600082825461135c919061193f565b925050819055508173ffffffffffffffffffffffffffffffffffffffff16600073ffffffffffffffffffffffffffffffffffffffff167fddf252ad1be2c89b69c2b068fc378daa952ba7f163c4a11628f55a4df523b3ef836040516113c191906118ed565b60405180910390a35050565b505050565b6000813590506113e181611e5f565b92915050565b6000813590506113f681611e76565b92915050565b60006020828403121561141257611411611ae1565b5b6000611420848285016113d2565b91505092915050565b600080604083850312156114405761143f611ae1565b5b600061144e858286016113d2565b925050602061145f858286016113d2565b9150509250929050565b60008060006060848603121561148257611481611ae1565b5b6000611490868287016113d2565b93505060206114a1868287016113d2565b92505060406114b2868287016113e7565b9150509250925092565b600080604083850312156114d3576114d2611ae1565b5b60006114e1858286016113d2565b92505060206114f2858286016113e7565b9150509250929050565b611505816119c9565b82525050565b611514816119db565b82525050565b600061152582611923565b61152f818561192e565b935061153f818560208601611a1e565b61154881611ae6565b840191505092915050565b600061156060238361192e565b915061156b82611af7565b604082019050919050565b600061158360228361192e565b915061158e82611b46565b604082019050919050565b60006115a660268361192e565b91506115b182611b95565b604082019050919050565b60006115c960228361192e565b91506115d482611be4565b604082019050919050565b60006115ec60268361192e565b91506115f782611c33565b604082019050919050565b600061160f60288361192e565b915061161a82611c82565b604082019050919050565b600061163260208361192e565b915061163d82611cd1565b602082019050919050565b600061165560218361192e565b915061166082611cfa565b604082019050919050565b600061167860258361192e565b915061168382611d49565b604082019050919050565b600061169b60248361192e565b91506116a682611d98565b604082019050919050565b60006116be60258361192e565b91506116c982611de7565b604082019050919050565b60006116e1601f8361192e565b91506116ec82611e36565b602082019050919050565b61170081611a07565b82525050565b61170f81611a11565b82525050565b600060208201905061172a60008301846114fc565b92915050565b6000602082019050611745600083018461150b565b92915050565b60006020820190508181036000830152611765818461151a565b905092915050565b6000602082019050818103600083015261178681611553565b9050919050565b600060208201905081810360008301526117a681611576565b9050919050565b600060208201905081810360008301526117c681611599565b9050919050565b600060208201905081810360008301526117e6816115bc565b9050919050565b60006020820190508181036000830152611806816115df565b9050919050565b6000602082019050818103600083015261182681611602565b9050919050565b6000602082019050818103600083015261184681611625565b9050919050565b6000602082019050818103600083015261186681611648565b9050919050565b600060208201905081810360008301526118868161166b565b9050919050565b600060208201905081810360008301526118a68161168e565b9050919050565b600060208201905081810360008301526118c6816116b1565b9050919050565b600060208201905081810360008301526118e6816116d4565b9050919050565b600060208201905061190260008301846116f7565b92915050565b600060208201905061191d6000830184611706565b92915050565b600081519050919050565b600082825260208201905092915050565b600061194a82611a07565b915061195583611a07565b9250827fffffffffffffffffffffffffffffffffffffffffffffffffffffffffffffffff0382111561198a57611989611a83565b5b828201905092915050565b60006119a082611a07565b91506119ab83611a07565b9250828210156119be576119bd611a83565b5b828203905092915050565b60006119d4826119e7565b9050919050565b60008115159050919050565b600073ffffffffffffffffffffffffffffffffffffffff82169050919050565b6000819050919050565b600060ff82169050919050565b60005b83811015611a3c578082015181840152602081019050611a21565b83811115611a4b576000848401525b50505050565b60006002820490506001821680611a6957607f821691505b60208210811415611a7d57611a7c611ab2565b5b50919050565b7f4e487b7100000000000000000000000000000000000000000000000000000000600052601160045260246000fd5b7f4e487b7100000000000000000000000000000000000000000000000000000000600052602260045260246000fd5b600080fd5b6000601f19601f8301169050919050565b7f45524332303a207472616e7366657220746f20746865207a65726f206164647260008201527f6573730000000000000000000000000000000000000000000000000000000000602082015250565b7f45524332303a206275726e20616d6f756e7420657863656564732062616c616e60008201527f6365000000000000000000000000000000000000000000000000000000000000602082015250565b7f4f776e61626c653a206e6577206f776e657220697320746865207a65726f206160008201527f6464726573730000000000000000000000000000000000000000000000000000602082015250565b7f45524332303a20617070726f766520746f20746865207a65726f20616464726560008201527f7373000000000000000000000000000000000000000000000000000000000000602082015250565b7f45524332303a207472616e7366657220616d6f756e742065786365656473206260008201527f616c616e63650000000000000000000000000000000000000000000000000000602082015250565b7f45524332303a207472616e7366657220616d6f756e742065786365656473206160008201527f6c6c6f77616e6365000000000000000000000000000000000000000000000000602082015250565b7f4f776e61626c653a2063616c6c6572206973206e6f7420746865206f776e6572600082015250565b7f45524332303a206275726e2066726f6d20746865207a65726f2061646472657360008201527f7300000000000000000000000000000000000000000000000000000000000000602082015250565b7f45524332303a207472616e736665722066726f6d20746865207a65726f20616460008201527f6472657373000000000000000000000000000000000000000000000000000000602082015250565b7f45524332303a20617070726f76652066726f6d20746865207a65726f2061646460008201527f7265737300000000000000000000000000000000000000000000000000000000602082015250565b7f45524332303a2064656372656173656420616c6c6f77616e63652062656c6f7760008201527f207a65726f000000000000000000000000000000000000000000000000000000602082015250565b7f45524332303a206d696e7420746f20746865207a65726f206164647265737300600082015250565b611e68816119c9565b8114611e7357600080fd5b50565b611e7f81611a07565b8114611e8a57600080fd5b5056fea2646970667358221220c3b23d8ae89e817bab1b5274d0a02f1c3145baca488767ecd2cb2553bf14e02564736f6c63430008060033",
  "linkReferences": {},
  "deployedLinkReferences": {}
}