{
  "_format": "hh-sol-artifact-1",
  "contractName": "DecentraDollar",
  "sourceName": "contracts/DecentraDollar.sol",
  "abi": [
    {
      "inputs": [],
      "stateMutability": "nonpayable",
      "type": "constructor"
    },
    {
      "anonymous": false,
      "inputs": [
        {
          "indexed": true,
          "internalType": "address",
          "name": "owner",
          "type": "address"
        },
        {
          "indexed": true,
          "internalType": "address",
          "name": "spender",
          "type": "address"
        },
        {
          "indexed": false,
          "internalType": "uint256",
          "name": "value",
          "type": "uint256"
        }
      ],
      "name": "Approval",
      "type": "event"
    },
    {
      "anonymous": false,
      "inputs": [
        {
          "indexed": false,
          "internalType": "address",
          "name": "_to",
          "type": "address"
        },
        {
          "indexed": false,
          "internalType": "uint256",
          "name": "_amount",
          "type": "uint256"
        }
      ],
      "name": "DD_Burned",
      "type": "event"
    },
    {
      "anonymous": false,
      "inputs": [
        {
          "indexed": false,
          "internalType": "address",
          "name": "_to",
          "type": "address"
        },
        {
          "indexed": false,
          "internalType": "uint256",
          "name": "_amount",
          "type": "uint256"
        }
      ],
      "name": "DD_Mined",
      "type": "event"
    },
    {
      "anonymous": false,
      "inputs": [
        {
          "indexed": true,
          "internalType": "address",
          "name": "previousOwner",
          "type": "address"
        },
        {
          "indexed": true,
          "internalType": "address",
          "name": "newOwner",
          "type": "address"
        }
      ],
      "name": "OwnershipTransferred",
      "type": "event"
    },
    {
      "anonymous": false,
      "inputs": [
        {
          "indexed": true,
          "internalType": "address",
          "name": "from",
          "type": "address"
        },
        {
          "indexed": true,
          "internalType": "address",
          "name": "to",
          "type": "address"
        },
        {
          "indexed": false,
          "internalType": "uint256",
          "name": "value",
          "type": "uint256"
        }
      ],
      "name": "Transfer",
      "type": "event"
    },
    {
      "inputs": [
        {
          "internalType": "address",
          "name": "owner",
          "type": "address"
        },
        {
          "internalType": "address",
          "name": "spender",
          "type": "address"
        }
      ],
      "name": "allowance",
      "outputs": [
        {
          "internalType": "uint256",
          "name": "",
          "type": "uint256"
        }
      ],
      "stateMutability": "view",
      "type": "function"
    },
    {
      "inputs": [
        {
          "internalType": "address",
          "name": "spender",
          "type": "address"
        },
        {
          "internalType": "uint256",
          "name": "amount",
          "type": "uint256"
        }
      ],
      "name": "approve",
      "outputs": [
        {
          "internalType": "bool",
          "name": "",
          "type": "bool"
        }
      ],
      "stateMutability": "nonpayable",
      "type": "function"
    },
    {
      "inputs": [
        {
          "internalType": "address",
          "name": "account",
          "type": "address"
        }
      ],
      "name": "balanceOf",
      "outputs": [
        {
          "internalType": "uint256",
          "name": "",
          "type": "uint256"
        }
      ],
      "stateMutability": "view",
      "type": "function"
    },
    {
      "inputs": [
        {
          "internalType": "address",
          "name": "_from",
          "type": "address"
        },
        {
          "internalType": "uint256",
          "name": "_amount",
          "type": "uint256"
        }
      ],
      "name": "burnDD",
      "outputs": [],
      "stateMutability": "nonpayable",
      "type": "function"
    },
    {
      "inputs": [],
      "name": "decimals",
      "outputs": [
        {
          "internalType": "uint8",
          "name": "",
          "type": "uint8"
        }
      ],
      "stateMutability": "view",
      "type": "function"
    },
    {
      "inputs": [
        {
          "internalType": "address",
          "name": "spender",
          "type": "address"
        },
        {
          "internalType": "uint256",
          "name": "subtractedValue",
          "type": "uint256"
        }
      ],
      "name": "decreaseAllowance",
      "outputs": [
        {
          "internalType": "bool",
          "name": "",
          "type": "bool"
        }
      ],
      "stateMutability": "nonpayable",
      "type": "function"
    },
    {
      "inputs": [
        {
          "internalType": "address",
          "name": "spender",
          "type": "address"
        },
        {
          "internalType": "uint256",
          "name": "addedValue",
          "type": "uint256"
        }
      ],
      "name": "increaseAllowance",
      "outputs": [
        {
          "internalType": "bool",
          "name": "",
          "type": "bool"
        }
      ],
      "stateMutability": "nonpayable",
      "type": "function"
    },
    {
      "inputs": [
        {
          "internalType": "address",
          "name": "_to",
          "type": "address"
        },
        {
          "internalType": "uint256",
          "name": "_amount",
          "type": "uint256"
        }
      ],
      "name": "mintDD",
      "outputs": [],
      "stateMutability": "nonpayable",
      "type": "function"
    },
    {
      "inputs": [],
      "name": "name",
      "outputs": [
        {
          "internalType": "string",
          "name": "",
          "type": "string"
        }
      ],
      "stateMutability": "view",
      "type": "function"
    },
    {
      "inputs": [],
      "name": "owner",
      "outputs": [
        {
          "internalType": "address",
          "name": "",
          "type": "address"
        }
      ],
      "stateMutability": "view",
      "type": "function"
    },
    {
      "inputs": [],
      "name": "renounceOwnership",
      "outputs": [],
      "stateMutability": "nonpayable",
      "type": "function"
    },
    {
      "inputs": [],
      "name": "symbol",
      "outputs": [
        {
          "internalType": "string",
          "name": "",
          "type": "string"
        }
      ],
      "stateMutability": "view",
      "type": "function"
    },
    {
      "inputs": [],
      "name": "totalSupply",
      "outputs": [
        {
          "internalType": "uint256",
          "name": "",
          "type": "uint256"
        }
      ],
      "stateMutability": "view",
      "type": "function"
    },
    {
      "inputs": [
        {
          "internalType": "address",
          "name": "recipient",
          "type": "address"
        },
        {
          "internalType": "uint256",
          "name": "amount",
          "type": "uint256"
        }
      ],
      "name": "transfer",
      "outputs": [
        {
          "internalType": "bool",
          "name": "",
          "type": "bool"
        }
      ],
      "stateMutability": "nonpayable",
      "type": "function"
    },
    {
      "inputs": [
        {
          "internalType": "address",
          "name": "sender",
          "type": "address"
        },
        {
          "internalType": "address",
          "name": "recipient",
          "type": "address"
        },
        {
          "internalType": "uint256",
          "name": "amount",
          "type": "uint256"
        }
      ],
      "name": "transferFrom",
      "outputs": [
        {
          "internalType": "bool",
          "name": "",
          "type": "bool"
        }
      ],
      "stateMutability": "nonpayable",
      "type": "function"
    },
    {
      "inputs": [
        {
          "internalType": "address",
          "name": "newOwner",
          "type": "address"
        }
      ],
      "name": "transferOwnership",
      "outputs": [],
      "stateMutability": "nonpayable",
      "type": "function"
    }
  ],
  "bytecode": "0x60806040523480156200001157600080fd5b506040518060400160405280600e81526020017f446563656e747261446f6c6c61720000000000000000000000000000000000008152506040518060400160405280600281526020017f44240000000000000000000000000000000000000000000000000000000000008152506000620000906200018660201b60201c565b9050806000806101000a81548173ffffffffffffffffffffffffffffffffffffffff021916908373ffffffffffffffffffffffffffffffffffffffff1602179055508073ffffffffffffffffffffffffffffffffffffffff16600073ffffffffffffffffffffffffffffffffffffffff167f8be0079c531659141344cd1fd0a4f28419497f9722a3daafe3b4186f6b6457e060405160405180910390a350816004908051906020019062000146929190620002f9565b5080600590805190602001906200015f929190620002f9565b50505062000180336b204fce5e3e250261100000006200018e60201b60201c565b62000555565b600033905090565b600073ffffffffffffffffffffffffffffffffffffffff168273ffffffffffffffffffffffffffffffffffffffff16141562000201576040517f08c379a0000000000000000000000000000000000000000000000000000000008152600401620001f890620003e1565b60405180910390fd5b6200021560008383620002f460201b60201c565b806003600082825462000229919062000431565b9250508190555080600160008473ffffffffffffffffffffffffffffffffffffffff1673ffffffffffffffffffffffffffffffffffffffff168152602001908152602001600020600082825462000281919062000431565b925050819055508173ffffffffffffffffffffffffffffffffffffffff16600073ffffffffffffffffffffffffffffffffffffffff167fddf252ad1be2c89b69c2b068fc378daa952ba7f163c4a11628f55a4df523b3ef83604051620002e8919062000403565b60405180910390a35050565b505050565b828054620003079062000498565b90600052602060002090601f0160209004810192826200032b576000855562000377565b82601f106200034657805160ff191683800117855562000377565b8280016001018555821562000377579182015b828111156200037657825182559160200191906001019062000359565b5b5090506200038691906200038a565b5090565b5b80821115620003a55760008160009055506001016200038b565b5090565b6000620003b8601f8362000420565b9150620003c5826200052c565b602082019050919050565b620003db816200048e565b82525050565b60006020820190508181036000830152620003fc81620003a9565b9050919050565b60006020820190506200041a6000830184620003d0565b92915050565b600082825260208201905092915050565b60006200043e826200048e565b91506200044b836200048e565b9250827fffffffffffffffffffffffffffffffffffffffffffffffffffffffffffffffff03821115620004835762000482620004ce565b5b828201905092915050565b6000819050919050565b60006002820490506001821680620004b157607f821691505b60208210811415620004c857620004c7620004fd565b5b50919050565b7f4e487b7100000000000000000000000000000000000000000000000000000000600052601160045260246000fd5b7f4e487b7100000000000000000000000000000000000000000000000000000000600052602260045260246000fd5b7f45524332303a206d696e7420746f20746865207a65726f206164647265737300600082015250565b611f5e80620005656000396000f3fe608060405234801561001057600080fd5b50600436106101005760003560e01c80637daf440d11610097578063a9059cbb11610066578063a9059cbb146102b1578063dd62ed3e146102e1578063eb97781514610311578063f2fde38b1461032d57610100565b80637daf440d146102295780638da5cb5b1461024557806395d89b4114610263578063a457c2d71461028157610100565b8063313ce567116100d3578063313ce567146101a157806339509351146101bf57806370a08231146101ef578063715018a61461021f57610100565b806306fdde0314610105578063095ea7b31461012357806318160ddd1461015357806323b872dd14610171575b600080fd5b61010d610349565b60405161011a91906117e6565b60405180910390f35b61013d6004803603810190610138919061152e565b6103db565b60405161014a91906117cb565b60405180910390f35b61015b6103f9565b6040516101689190611988565b60405180910390f35b61018b600480360381019061018691906114db565b610403565b60405161019891906117cb565b60405180910390f35b6101a9610504565b6040516101b691906119a3565b60405180910390f35b6101d960048036038101906101d4919061152e565b61050d565b6040516101e691906117cb565b60405180910390f35b6102096004803603810190610204919061146e565b6105b9565b6040516102169190611988565b60405180910390f35b610227610602565b005b610243600480360381019061023e919061152e565b61073c565b005b61024d6107ff565b60405161025a9190611787565b60405180910390f35b61026b610828565b60405161027891906117e6565b60405180910390f35b61029b6004803603810190610296919061152e565b6108ba565b6040516102a891906117cb565b60405180910390f35b6102cb60048036038101906102c6919061152e565b6109ae565b6040516102d891906117cb565b60405180910390f35b6102fb60048036038101906102f6919061149b565b6109cc565b6040516103089190611988565b60405180910390f35b61032b6004803603810190610326919061152e565b610a53565b005b6103476004803603810190610342919061146e565b610b16565b005b60606004805461035890611aec565b80601f016020809104026020016040519081016040528092919081815260200182805461038490611aec565b80156103d15780601f106103a6576101008083540402835291602001916103d1565b820191906000526020600020905b8154815290600101906020018083116103b457829003601f168201915b5050505050905090565b60006103ef6103e8610cbf565b8484610cc7565b6001905092915050565b6000600354905090565b6000610410848484610e92565b6000600260008673ffffffffffffffffffffffffffffffffffffffff1673ffffffffffffffffffffffffffffffffffffffff168152602001908152602001600020600061045b610cbf565b73ffffffffffffffffffffffffffffffffffffffff1673ffffffffffffffffffffffffffffffffffffffff168152602001908152602001600020549050828110156104db576040517f08c379a00000000000000000000000000000000000000000000000000000000081526004016104d2906118a8565b60405180910390fd5b6104f8856104e7610cbf565b85846104f39190611a30565b610cc7565b60019150509392505050565b60006012905090565b60006105af61051a610cbf565b848460026000610528610cbf565b73ffffffffffffffffffffffffffffffffffffffff1673ffffffffffffffffffffffffffffffffffffffff16815260200190815260200160002060008873ffffffffffffffffffffffffffffffffffffffff1673ffffffffffffffffffffffffffffffffffffffff168152602001908152602001600020546105aa91906119da565b610cc7565b6001905092915050565b6000600160008373ffffffffffffffffffffffffffffffffffffffff1673ffffffffffffffffffffffffffffffffffffffff168152602001908152602001600020549050919050565b61060a610cbf565b73ffffffffffffffffffffffffffffffffffffffff166106286107ff565b73ffffffffffffffffffffffffffffffffffffffff161461067e576040517f08c379a0000000000000000000000000000000000000000000000000000000008152600401610675906118c8565b60405180910390fd5b600073ffffffffffffffffffffffffffffffffffffffff1660008054906101000a900473ffffffffffffffffffffffffffffffffffffffff1673ffffffffffffffffffffffffffffffffffffffff167f8be0079c531659141344cd1fd0a4f28419497f9722a3daafe3b4186f6b6457e060405160405180910390a360008060006101000a81548173ffffffffffffffffffffffffffffffffffffffff021916908373ffffffffffffffffffffffffffffffffffffffff160217905550565b610744610cbf565b73ffffffffffffffffffffffffffffffffffffffff166107626107ff565b73ffffffffffffffffffffffffffffffffffffffff16146107b8576040517f08c379a00000000000000000000000000000000000000000000000000000000081526004016107af906118c8565b60405180910390fd5b6107c28282611114565b7f473334592e992d1996388ca3b5c6a4cb9208f6e979b72315f3da21a4e4f576e282826040516107f39291906117a2565b60405180910390a15050565b60008060009054906101000a900473ffffffffffffffffffffffffffffffffffffffff16905090565b60606005805461083790611aec565b80601f016020809104026020016040519081016040528092919081815260200182805461086390611aec565b80156108b05780601f10610885576101008083540402835291602001916108b0565b820191906000526020600020905b81548152906001019060200180831161089357829003601f168201915b5050505050905090565b600080600260006108c9610cbf565b73ffffffffffffffffffffffffffffffffffffffff1673ffffffffffffffffffffffffffffffffffffffff16815260200190815260200160002060008573ffffffffffffffffffffffffffffffffffffffff1673ffffffffffffffffffffffffffffffffffffffff16815260200190815260200160002054905082811015610986576040517f08c379a000000000000000000000000000000000000000000000000000000000815260040161097d90611948565b60405180910390fd5b6109a3610991610cbf565b85858461099e9190611a30565b610cc7565b600191505092915050565b60006109c26109bb610cbf565b8484610e92565b6001905092915050565b6000600260008473ffffffffffffffffffffffffffffffffffffffff1673ffffffffffffffffffffffffffffffffffffffff16815260200190815260200160002060008373ffffffffffffffffffffffffffffffffffffffff1673ffffffffffffffffffffffffffffffffffffffff16815260200190815260200160002054905092915050565b610a5b610cbf565b73ffffffffffffffffffffffffffffffffffffffff16610a796107ff565b73ffffffffffffffffffffffffffffffffffffffff1614610acf576040517f08c379a0000000000000000000000000000000000000000000000000000000008152600401610ac6906118c8565b60405180910390fd5b610ad98282611269565b7fa475b63939c74641471a342245443087c2931540a841876ed08f0bc26d57d96b8282604051610b0a9291906117a2565b60405180910390a15050565b610b1e610cbf565b73ffffffffffffffffffffffffffffffffffffffff16610b3c6107ff565b73ffffffffffffffffffffffffffffffffffffffff1614610b92576040517f08c379a0000000000000000000000000000000000000000000000000000000008152600401610b89906118c8565b60405180910390fd5b600073ffffffffffffffffffffffffffffffffffffffff168173ffffffffffffffffffffffffffffffffffffffff161415610c02576040517f08c379a0000000000000000000000000000000000000000000000000000000008152600401610bf990611848565b60405180910390fd5b8073ffffffffffffffffffffffffffffffffffffffff1660008054906101000a900473ffffffffffffffffffffffffffffffffffffffff1673ffffffffffffffffffffffffffffffffffffffff167f8be0079c531659141344cd1fd0a4f28419497f9722a3daafe3b4186f6b6457e060405160405180910390a3806000806101000a81548173ffffffffffffffffffffffffffffffffffffffff021916908373ffffffffffffffffffffffffffffffffffffffff16021790555050565b600033905090565b600073ffffffffffffffffffffffffffffffffffffffff168373ffffffffffffffffffffffffffffffffffffffff161415610d37576040517f08c379a0000000000000000000000000000000000000000000000000000000008152600401610d2e90611928565b60405180910390fd5b600073ffffffffffffffffffffffffffffffffffffffff168273ffffffffffffffffffffffffffffffffffffffff161415610da7576040517f08c379a0000000000000000000000000000000000000000000000000000000008152600401610d9e90611868565b60405180910390fd5b80600260008573ffffffffffffffffffffffffffffffffffffffff1673ffffffffffffffffffffffffffffffffffffffff16815260200190815260200160002060008473ffffffffffffffffffffffffffffffffffffffff1673ffffffffffffffffffffffffffffffffffffffff168152602001908152602001600020819055508173ffffffffffffffffffffffffffffffffffffffff168373ffffffffffffffffffffffffffffffffffffffff167f8c5be1e5ebec7d5bd14f71427d1e84f3dd0314c0f7b2291e5b200ac8c7c3b92583604051610e859190611988565b60405180910390a3505050565b600073ffffffffffffffffffffffffffffffffffffffff168373ffffffffffffffffffffffffffffffffffffffff161415610f02576040517f08c379a0000000000000000000000000000000000000000000000000000000008152600401610ef990611908565b60405180910390fd5b600073ffffffffffffffffffffffffffffffffffffffff168273ffffffffffffffffffffffffffffffffffffffff161415610f72576040517f08c379a0000000000000000000000000000000000000000000000000000000008152600401610f6990611808565b60405180910390fd5b610f7d83838361143f565b6000600160008573ffffffffffffffffffffffffffffffffffffffff1673ffffffffffffffffffffffffffffffffffffffff16815260200190815260200160002054905081811015611004576040517f08c379a0000000000000000000000000000000000000000000000000000000008152600401610ffb90611888565b60405180910390fd5b81816110109190611a30565b600160008673ffffffffffffffffffffffffffffffffffffffff1673ffffffffffffffffffffffffffffffffffffffff1681526020019081526020016000208190555081600160008573ffffffffffffffffffffffffffffffffffffffff1673ffffffffffffffffffffffffffffffffffffffff16815260200190815260200160002060008282546110a291906119da565b925050819055508273ffffffffffffffffffffffffffffffffffffffff168473ffffffffffffffffffffffffffffffffffffffff167fddf252ad1be2c89b69c2b068fc378daa952ba7f163c4a11628f55a4df523b3ef846040516111069190611988565b60405180910390a350505050565b600073ffffffffffffffffffffffffffffffffffffffff168273ffffffffffffffffffffffffffffffffffffffff161415611184576040517f08c379a000000000000000000000000000000000000000000000000000000000815260040161117b90611968565b60405180910390fd5b6111906000838361143f565b80600360008282546111a291906119da565b9250508190555080600160008473ffffffffffffffffffffffffffffffffffffffff1673ffffffffffffffffffffffffffffffffffffffff16815260200190815260200160002060008282546111f891906119da565b925050819055508173ffffffffffffffffffffffffffffffffffffffff16600073ffffffffffffffffffffffffffffffffffffffff167fddf252ad1be2c89b69c2b068fc378daa952ba7f163c4a11628f55a4df523b3ef8360405161125d9190611988565b60405180910390a35050565b600073ffffffffffffffffffffffffffffffffffffffff168273ffffffffffffffffffffffffffffffffffffffff1614156112d9576040517f08c379a00000000000000000000000000000000000000000000000000000000081526004016112d0906118e8565b60405180910390fd5b6112e58260008361143f565b6000600160008473ffffffffffffffffffffffffffffffffffffffff1673ffffffffffffffffffffffffffffffffffffffff1681526020019081526020016000205490508181101561136c576040517f08c379a000000000000000000000000000000000000000000000000000000000815260040161136390611828565b60405180910390fd5b81816113789190611a30565b600160008573ffffffffffffffffffffffffffffffffffffffff1673ffffffffffffffffffffffffffffffffffffffff1681526020019081526020016000208190555081600360008282546113cd9190611a30565b92505081905550600073ffffffffffffffffffffffffffffffffffffffff168373ffffffffffffffffffffffffffffffffffffffff167fddf252ad1be2c89b69c2b068fc378daa952ba7f163c4a11628f55a4df523b3ef846040516114329190611988565b60405180910390a3505050565b505050565b60008135905061145381611efa565b92915050565b60008135905061146881611f11565b92915050565b60006020828403121561148457611483611b7c565b5b600061149284828501611444565b91505092915050565b600080604083850312156114b2576114b1611b7c565b5b60006114c085828601611444565b92505060206114d185828601611444565b9150509250929050565b6000806000606084860312156114f4576114f3611b7c565b5b600061150286828701611444565b935050602061151386828701611444565b925050604061152486828701611459565b9150509250925092565b6000806040838503121561154557611544611b7c565b5b600061155385828601611444565b925050602061156485828601611459565b9150509250929050565b61157781611a64565b82525050565b61158681611a76565b82525050565b6000611597826119be565b6115a181856119c9565b93506115b1818560208601611ab9565b6115ba81611b81565b840191505092915050565b60006115d26023836119c9565b91506115dd82611b92565b604082019050919050565b60006115f56022836119c9565b915061160082611be1565b604082019050919050565b60006116186026836119c9565b915061162382611c30565b604082019050919050565b600061163b6022836119c9565b915061164682611c7f565b604082019050919050565b600061165e6026836119c9565b915061166982611cce565b604082019050919050565b60006116816028836119c9565b915061168c82611d1d565b604082019050919050565b60006116a46020836119c9565b91506116af82611d6c565b602082019050919050565b60006116c76021836119c9565b91506116d282611d95565b604082019050919050565b60006116ea6025836119c9565b91506116f582611de4565b604082019050919050565b600061170d6024836119c9565b915061171882611e33565b604082019050919050565b60006117306025836119c9565b915061173b82611e82565b604082019050919050565b6000611753601f836119c9565b915061175e82611ed1565b602082019050919050565b61177281611aa2565b82525050565b61178181611aac565b82525050565b600060208201905061179c600083018461156e565b92915050565b60006040820190506117b7600083018561156e565b6117c46020830184611769565b9392505050565b60006020820190506117e0600083018461157d565b92915050565b60006020820190508181036000830152611800818461158c565b905092915050565b60006020820190508181036000830152611821816115c5565b9050919050565b60006020820190508181036000830152611841816115e8565b9050919050565b600060208201905081810360008301526118618161160b565b9050919050565b600060208201905081810360008301526118818161162e565b9050919050565b600060208201905081810360008301526118a181611651565b9050919050565b600060208201905081810360008301526118c181611674565b9050919050565b600060208201905081810360008301526118e181611697565b9050919050565b60006020820190508181036000830152611901816116ba565b9050919050565b60006020820190508181036000830152611921816116dd565b9050919050565b6000602082019050818103600083015261194181611700565b9050919050565b6000602082019050818103600083015261196181611723565b9050919050565b6000602082019050818103600083015261198181611746565b9050919050565b600060208201905061199d6000830184611769565b92915050565b60006020820190506119b86000830184611778565b92915050565b600081519050919050565b600082825260208201905092915050565b60006119e582611aa2565b91506119f083611aa2565b9250827fffffffffffffffffffffffffffffffffffffffffffffffffffffffffffffffff03821115611a2557611a24611b1e565b5b828201905092915050565b6000611a3b82611aa2565b9150611a4683611aa2565b925082821015611a5957611a58611b1e565b5b828203905092915050565b6000611a6f82611a82565b9050919050565b60008115159050919050565b600073ffffffffffffffffffffffffffffffffffffffff82169050919050565b6000819050919050565b600060ff82169050919050565b60005b83811015611ad7578082015181840152602081019050611abc565b83811115611ae6576000848401525b50505050565b60006002820490506001821680611b0457607f821691505b60208210811415611b1857611b17611b4d565b5b50919050565b7f4e487b7100000000000000000000000000000000000000000000000000000000600052601160045260246000fd5b7f4e487b7100000000000000000000000000000000000000000000000000000000600052602260045260246000fd5b600080fd5b6000601f19601f8301169050919050565b7f45524332303a207472616e7366657220746f20746865207a65726f206164647260008201527f6573730000000000000000000000000000000000000000000000000000000000602082015250565b7f45524332303a206275726e20616d6f756e7420657863656564732062616c616e60008201527f6365000000000000000000000000000000000000000000000000000000000000602082015250565b7f4f776e61626c653a206e6577206f776e657220697320746865207a65726f206160008201527f6464726573730000000000000000000000000000000000000000000000000000602082015250565b7f45524332303a20617070726f766520746f20746865207a65726f20616464726560008201527f7373000000000000000000000000000000000000000000000000000000000000602082015250565b7f45524332303a207472616e7366657220616d6f756e742065786365656473206260008201527f616c616e63650000000000000000000000000000000000000000000000000000602082015250565b7f45524332303a207472616e7366657220616d6f756e742065786365656473206160008201527f6c6c6f77616e6365000000000000000000000000000000000000000000000000602082015250565b7f4f776e61626c653a2063616c6c6572206973206e6f7420746865206f776e6572600082015250565b7f45524332303a206275726e2066726f6d20746865207a65726f2061646472657360008201527f7300000000000000000000000000000000000000000000000000000000000000602082015250565b7f45524332303a207472616e736665722066726f6d20746865207a65726f20616460008201527f6472657373000000000000000000000000000000000000000000000000000000602082015250565b7f45524332303a20617070726f76652066726f6d20746865207a65726f2061646460008201527f7265737300000000000000000000000000000000000000000000000000000000602082015250565b7f45524332303a2064656372656173656420616c6c6f77616e63652062656c6f7760008201527f207a65726f000000000000000000000000000000000000000000000000000000602082015250565b7f45524332303a206d696e7420746f20746865207a65726f206164647265737300600082015250565b611f0381611a64565b8114611f0e57600080fd5b50565b611f1a81611aa2565b8114611f2557600080fd5b5056fea2646970667358221220db8d2f6a14f8773b242ef35f1e4180507df9e5e52981a4106eff74fcca85db3364736f6c63430008060033",
  "linkReferences": {},
  "deployedLinkReferences": {}
}