{
  "_format": "hh-sol-artifact-1",
  "contractName": "DecentraCore",
  "sourceName": "contracts/DecentraCore.sol",
  "abi": [
    {
      "inputs": [
        {
          "internalType": "address",
          "name": "_dDollar",
          "type": "address"
        },
        {
          "internalType": "address",
          "name": "_dStock",
          "type": "address"
        },
        {
          "internalType": "address",
          "name": "_dScore",
          "type": "address"
        }
      ],
      "stateMutability": "nonpayable",
      "type": "constructor"
    },
    {
      "anonymous": false,
      "inputs": [
        {
          "indexed": false,
          "internalType": "address",
          "name": "target",
          "type": "address"
        },
        {
          "indexed": false,
          "internalType": "bytes",
          "name": "call_data",
          "type": "bytes"
        }
      ],
      "name": "FunctionCallDelegated",
      "type": "event"
    },
    {
      "anonymous": false,
      "inputs": [
        {
          "indexed": false,
          "internalType": "address",
          "name": "contractAdd",
          "type": "address"
        },
        {
          "indexed": false,
          "internalType": "uint256",
          "name": "privledge",
          "type": "uint256"
        }
      ],
      "name": "NewApprovedContract",
      "type": "event"
    },
    {
      "anonymous": false,
      "inputs": [
        {
          "indexed": false,
          "internalType": "uint256",
          "name": "proposalId",
          "type": "uint256"
        },
        {
          "indexed": false,
          "internalType": "address",
          "name": "creator",
          "type": "address"
        },
        {
          "indexed": false,
          "internalType": "address",
          "name": "target",
          "type": "address"
        },
        {
          "indexed": false,
          "internalType": "string",
          "name": "propHash",
          "type": "string"
        },
        {
          "indexed": false,
          "internalType": "bytes",
          "name": "call_data",
          "type": "bytes"
        }
      ],
      "name": "NewProposal",
      "type": "event"
    },
    {
      "anonymous": false,
      "inputs": [
        {
          "indexed": false,
          "internalType": "uint256",
          "name": "proposalId",
          "type": "uint256"
        },
        {
          "indexed": false,
          "internalType": "address",
          "name": "voter",
          "type": "address"
        },
        {
          "indexed": false,
          "internalType": "bool",
          "name": "vote",
          "type": "bool"
        }
      ],
      "name": "NewVote",
      "type": "event"
    },
    {
      "anonymous": false,
      "inputs": [
        {
          "indexed": true,
          "internalType": "address",
          "name": "previousOwner",
          "type": "address"
        },
        {
          "indexed": true,
          "internalType": "address",
          "name": "newOwner",
          "type": "address"
        }
      ],
      "name": "OwnershipTransferred",
      "type": "event"
    },
    {
      "anonymous": false,
      "inputs": [
        {
          "indexed": false,
          "internalType": "uint256",
          "name": "proposalId",
          "type": "uint256"
        },
        {
          "indexed": false,
          "internalType": "bool",
          "name": "success",
          "type": "bool"
        }
      ],
      "name": "ProposalApproved",
      "type": "event"
    },
    {
      "inputs": [
        {
          "internalType": "address",
          "name": "",
          "type": "address"
        }
      ],
      "name": "burners",
      "outputs": [
        {
          "internalType": "bool",
          "name": "",
          "type": "bool"
        }
      ],
      "stateMutability": "view",
      "type": "function"
    },
    {
      "inputs": [],
      "name": "dScore",
      "outputs": [
        {
          "internalType": "contract IDScore",
          "name": "",
          "type": "address"
        }
      ],
      "stateMutability": "view",
      "type": "function"
    },
    {
      "inputs": [
        {
          "internalType": "address",
          "name": "",
          "type": "address"
        }
      ],
      "name": "dScoreMod",
      "outputs": [
        {
          "internalType": "bool",
          "name": "",
          "type": "bool"
        }
      ],
      "stateMutability": "view",
      "type": "function"
    },
    {
      "inputs": [],
      "name": "dd",
      "outputs": [
        {
          "internalType": "contract IDecentraDollar",
          "name": "",
          "type": "address"
        }
      ],
      "stateMutability": "view",
      "type": "function"
    },
    {
      "inputs": [],
      "name": "ds",
      "outputs": [
        {
          "internalType": "contract IDecentraStock",
          "name": "",
          "type": "address"
        }
      ],
      "stateMutability": "view",
      "type": "function"
    },
    {
      "inputs": [
        {
          "internalType": "address",
          "name": "",
          "type": "address"
        }
      ],
      "name": "freezeFrame",
      "outputs": [
        {
          "internalType": "uint256",
          "name": "",
          "type": "uint256"
        }
      ],
      "stateMutability": "view",
      "type": "function"
    },
    {
      "inputs": [
        {
          "internalType": "address",
          "name": "",
          "type": "address"
        }
      ],
      "name": "frozenAccounts",
      "outputs": [
        {
          "internalType": "bool",
          "name": "",
          "type": "bool"
        }
      ],
      "stateMutability": "view",
      "type": "function"
    },
    {
      "inputs": [
        {
          "internalType": "uint256",
          "name": "_id",
          "type": "uint256"
        }
      ],
      "name": "getProposal",
      "outputs": [
        {
          "internalType": "address",
          "name": "maker",
          "type": "address"
        },
        {
          "internalType": "address",
          "name": "target",
          "type": "address"
        },
        {
          "internalType": "uint256",
          "name": "voteWeights",
          "type": "uint256"
        },
        {
          "internalType": "uint256",
          "name": "voteID",
          "type": "uint256"
        },
        {
          "internalType": "uint256",
          "name": "timeCreated",
          "type": "uint256"
        },
        {
          "internalType": "bool",
          "name": "executed",
          "type": "bool"
        },
        {
          "internalType": "string",
          "name": "proposalHash",
          "type": "string"
        },
        {
          "internalType": "bytes",
          "name": "call_data",
          "type": "bytes"
        }
      ],
      "stateMutability": "view",
      "type": "function"
    },
    {
      "inputs": [
        {
          "internalType": "address",
          "name": "",
          "type": "address"
        }
      ],
      "name": "minters",
      "outputs": [
        {
          "internalType": "bool",
          "name": "",
          "type": "bool"
        }
      ],
      "stateMutability": "view",
      "type": "function"
    },
    {
      "inputs": [
        {
          "internalType": "address payable",
          "name": "_target",
          "type": "address"
        },
        {
          "internalType": "string",
          "name": "_proposalHash",
          "type": "string"
        },
        {
          "internalType": "bytes",
          "name": "_calldata",
          "type": "bytes"
        }
      ],
      "name": "newProposal",
      "outputs": [],
      "stateMutability": "payable",
      "type": "function"
    },
    {
      "inputs": [],
      "name": "owner",
      "outputs": [
        {
          "internalType": "address",
          "name": "",
          "type": "address"
        }
      ],
      "stateMutability": "view",
      "type": "function"
    },
    {
      "inputs": [],
      "name": "proposalID",
      "outputs": [
        {
          "internalType": "uint256",
          "name": "",
          "type": "uint256"
        }
      ],
      "stateMutability": "view",
      "type": "function"
    },
    {
      "inputs": [],
      "name": "proposalTime",
      "outputs": [
        {
          "internalType": "uint256",
          "name": "",
          "type": "uint256"
        }
      ],
      "stateMutability": "view",
      "type": "function"
    },
    {
      "inputs": [
        {
          "internalType": "uint256",
          "name": "",
          "type": "uint256"
        }
      ],
      "name": "proposals",
      "outputs": [
        {
          "internalType": "address",
          "name": "maker",
          "type": "address"
        },
        {
          "internalType": "address payable",
          "name": "target",
          "type": "address"
        },
        {
          "internalType": "uint256",
          "name": "timeCreated",
          "type": "uint256"
        },
        {
          "internalType": "uint256",
          "name": "voteWeights",
          "type": "uint256"
        },
        {
          "internalType": "uint256",
          "name": "voteID",
          "type": "uint256"
        },
        {
          "internalType": "bool",
          "name": "executed",
          "type": "bool"
        },
        {
          "internalType": "bool",
          "name": "proposalPassed",
          "type": "bool"
        },
        {
          "internalType": "string",
          "name": "proposalHash",
          "type": "string"
        },
        {
          "internalType": "bytes",
          "name": "call_data",
          "type": "bytes"
        }
      ],
      "stateMutability": "view",
      "type": "function"
    },
    {
      "inputs": [
        {
          "internalType": "address",
          "name": "_from",
          "type": "address"
        },
        {
          "internalType": "uint256",
          "name": "_amount",
          "type": "uint256"
        }
      ],
      "name": "proxyBurnDD",
      "outputs": [],
      "stateMutability": "nonpayable",
      "type": "function"
    },
    {
      "inputs": [
        {
          "internalType": "address",
          "name": "_from",
          "type": "address"
        },
        {
          "internalType": "uint256",
          "name": "_amount",
          "type": "uint256"
        }
      ],
      "name": "proxyBurnDS",
      "outputs": [],
      "stateMutability": "nonpayable",
      "type": "function"
    },
    {
      "inputs": [
        {
          "internalType": "address",
          "name": "_to",
          "type": "address"
        },
        {
          "internalType": "uint256",
          "name": "_amount",
          "type": "uint256"
        }
      ],
      "name": "proxyMintDD",
      "outputs": [],
      "stateMutability": "nonpayable",
      "type": "function"
    },
    {
      "inputs": [
        {
          "internalType": "address",
          "name": "_to",
          "type": "address"
        },
        {
          "internalType": "uint256",
          "name": "_amount",
          "type": "uint256"
        }
      ],
      "name": "proxyMintDS",
      "outputs": [],
      "stateMutability": "nonpayable",
      "type": "function"
    },
    {
      "inputs": [],
      "name": "quorum",
      "outputs": [
        {
          "internalType": "uint256",
          "name": "",
          "type": "uint256"
        }
      ],
      "stateMutability": "view",
      "type": "function"
    },
    {
      "inputs": [],
      "name": "renounceOwnership",
      "outputs": [],
      "stateMutability": "nonpayable",
      "type": "function"
    },
    {
      "inputs": [
        {
          "internalType": "address",
          "name": "_contract",
          "type": "address"
        },
        {
          "internalType": "uint256",
          "name": "_privledge",
          "type": "uint256"
        }
      ],
      "name": "setApprovedContract",
      "outputs": [],
      "stateMutability": "nonpayable",
      "type": "function"
    },
    {
      "inputs": [
        {
          "internalType": "uint256",
          "name": "_quorum",
          "type": "uint256"
        }
      ],
      "name": "setQuorum",
      "outputs": [],
      "stateMutability": "nonpayable",
      "type": "function"
    },
    {
      "inputs": [
        {
          "internalType": "address",
          "name": "newOwner",
          "type": "address"
        }
      ],
      "name": "transferOwnership",
      "outputs": [],
      "stateMutability": "nonpayable",
      "type": "function"
    },
    {
      "inputs": [
        {
          "internalType": "address payable",
          "name": "_to",
          "type": "address"
        },
        {
          "internalType": "uint256",
          "name": "_amount",
          "type": "uint256"
        }
      ],
      "name": "transferxDAI",
      "outputs": [],
      "stateMutability": "nonpayable",
      "type": "function"
    },
    {
      "inputs": [
        {
          "internalType": "uint256",
          "name": "_ProposalID",
          "type": "uint256"
        },
        {
          "internalType": "bool",
          "name": "supportsProposal",
          "type": "bool"
        }
      ],
      "name": "vote",
      "outputs": [],
      "stateMutability": "nonpayable",
      "type": "function"
    }
  ],
  "bytecode": "0x60806040523480156200001157600080fd5b506040516200378e3803806200378e8339818101604052810190620000379190620001dc565b600062000049620001bd60201b60201c565b9050806000806101000a81548173ffffffffffffffffffffffffffffffffffffffff021916908373ffffffffffffffffffffffffffffffffffffffff1602179055508073ffffffffffffffffffffffffffffffffffffffff16600073ffffffffffffffffffffffffffffffffffffffff167f8be0079c531659141344cd1fd0a4f28419497f9722a3daafe3b4186f6b6457e060405160405180910390a35082600460006101000a81548173ffffffffffffffffffffffffffffffffffffffff021916908373ffffffffffffffffffffffffffffffffffffffff16021790555081600560006101000a81548173ffffffffffffffffffffffffffffffffffffffff021916908373ffffffffffffffffffffffffffffffffffffffff16021790555080600660006101000a81548173ffffffffffffffffffffffffffffffffffffffff021916908373ffffffffffffffffffffffffffffffffffffffff16021790555062093a806002819055505050506200028b565b600033905090565b600081519050620001d68162000271565b92915050565b600080600060608486031215620001f857620001f76200026c565b5b60006200020886828701620001c5565b93505060206200021b86828701620001c5565b92505060406200022e86828701620001c5565b9150509250925092565b600062000245826200024c565b9050919050565b600073ffffffffffffffffffffffffffffffffffffffff82169050919050565b600080fd5b6200027c8162000238565b81146200028857600080fd5b50565b6134f3806200029b6000396000f3fe6080604052600436106101665760003560e01c806383ac74f9116100d1578063c1ba4e591161008a578063c9d27afe11610064578063c9d27afe1461053e578063d7c9318014610567578063f2fde38b14610590578063f46eccc4146105b957610166565b8063c1ba4e5914610494578063c3396bdc146104bd578063c7f758a8146104fa57610166565b806383ac74f914610393578063860838a5146103bc5780638da5cb5b146103f95780639c94f65114610424578063a120c14f1461044d578063c079c0c31461047857610166565b8063371fa85411610123578063371fa8541461029757806351bcc28b146102c25780636122698f146102ff578063715018a61461032a5780637563dd541461034157806382f4f5b41461036a57610166565b8063013cf08b1461016b57806303d41e0e146101b05780631268b7d2146101ed5780631703a01814610216578063184a0ae91461024157806330dce62b1461026c575b600080fd5b34801561017757600080fd5b50610192600480360381019061018d91906124e8565b6105f6565b6040516101a79998979695949392919061283a565b60405180910390f35b3480156101bc57600080fd5b506101d760048036038101906101d29190612383565b6107ae565b6040516101e4919061298a565b60405180910390f35b3480156101f957600080fd5b50610214600480360381019061020f919061247b565b6107ce565b005b34801561022257600080fd5b5061022b6109fc565b6040516102389190612b16565b60405180910390f35b34801561024d57600080fd5b50610256610a02565b6040516102639190612b16565b60405180910390f35b34801561027857600080fd5b50610281610a08565b60405161028e91906129db565b60405180910390f35b3480156102a357600080fd5b506102ac610a2e565b6040516102b99190612b16565b60405180910390f35b3480156102ce57600080fd5b506102e960048036038101906102e49190612383565b610a34565b6040516102f6919061298a565b60405180910390f35b34801561030b57600080fd5b50610314610a54565b60405161032191906129a5565b60405180910390f35b34801561033657600080fd5b5061033f610a7a565b005b34801561034d57600080fd5b506103686004803603810190610363919061243b565b610bb4565b005b34801561037657600080fd5b50610391600480360381019061038c919061247b565b610c7b565b005b34801561039f57600080fd5b506103ba60048036038101906103b5919061247b565b610d9a565b005b3480156103c857600080fd5b506103e360048036038101906103de9190612383565b610eb9565b6040516103f0919061298a565b60405180910390f35b34801561040557600080fd5b5061040e610ed9565b60405161041b91906127ef565b60405180910390f35b34801561043057600080fd5b5061044b6004803603810190610446919061247b565b610f02565b005b34801561045957600080fd5b50610462611021565b60405161046f91906129c0565b60405180910390f35b610492600480360381019061048d91906123b0565b611047565b005b3480156104a057600080fd5b506104bb60048036038101906104b691906124e8565b61127e565b005b3480156104c957600080fd5b506104e460048036038101906104df9190612383565b611304565b6040516104f19190612b16565b60405180910390f35b34801561050657600080fd5b50610521600480360381019061051c91906124e8565b61131c565b6040516105359897969594939291906128d5565b60405180910390f35b34801561054a57600080fd5b5061056560048036038101906105609190612542565b6114e0565b005b34801561057357600080fd5b5061058e6004803603810190610589919061247b565b611989565b005b34801561059c57600080fd5b506105b760048036038101906105b29190612383565b611aa8565b005b3480156105c557600080fd5b506105e060048036038101906105db9190612383565b611c51565b6040516105ed919061298a565b60405180910390f35b60096020528060005260406000206000915090508060000160009054906101000a900473ffffffffffffffffffffffffffffffffffffffff16908060010160009054906101000a900473ffffffffffffffffffffffffffffffffffffffff16908060020154908060030154908060040154908060050160009054906101000a900460ff16908060050160019054906101000a900460ff169080600601805461069d9061304c565b80601f01602080910402602001604051908101604052809291908181526020018280546106c99061304c565b80156107165780601f106106eb57610100808354040283529160200191610716565b820191906000526020600020905b8154815290600101906020018083116106f957829003601f168201915b50505050509080600701805461072b9061304c565b80601f01602080910402602001604051908101604052809291908181526020018280546107579061304c565b80156107a45780601f10610779576101008083540402835291602001916107a4565b820191906000526020600020905b81548152906001019060200180831161078757829003601f168201915b5050505050905089565b600b6020528060005260406000206000915054906101000a900460ff1681565b6107d6611c71565b73ffffffffffffffffffffffffffffffffffffffff166107f4610ed9565b73ffffffffffffffffffffffffffffffffffffffff161461084a576040517f08c379a000000000000000000000000000000000000000000000000000000000815260040161084190612ab6565b60405180910390fd5b60008111801561085a5750600481105b610899576040517f08c379a000000000000000000000000000000000000000000000000000000000815260040161089090612a76565b60405180910390fd5b60018114156108fb576001600a60008473ffffffffffffffffffffffffffffffffffffffff1673ffffffffffffffffffffffffffffffffffffffff16815260200190815260200160002060006101000a81548160ff0219169083151502179055505b600281141561095d576001600b60008473ffffffffffffffffffffffffffffffffffffffff1673ffffffffffffffffffffffffffffffffffffffff16815260200190815260200160002060006101000a81548160ff0219169083151502179055505b60038114156109bf576001600c60008473ffffffffffffffffffffffffffffffffffffffff1673ffffffffffffffffffffffffffffffffffffffff16815260200190815260200160002060006101000a81548160ff0219169083151502179055505b7f93bacf59401553d43a2c6718bebf94e6642673e6de4e2f8e8b3e3dbff860f45b82826040516109f0929190612961565b60405180910390a15050565b60035481565b60025481565b600560009054906101000a900473ffffffffffffffffffffffffffffffffffffffff1681565b60015481565b600c6020528060005260406000206000915054906101000a900460ff1681565b600660009054906101000a900473ffffffffffffffffffffffffffffffffffffffff1681565b610a82611c71565b73ffffffffffffffffffffffffffffffffffffffff16610aa0610ed9565b73ffffffffffffffffffffffffffffffffffffffff1614610af6576040517f08c379a0000000000000000000000000000000000000000000000000000000008152600401610aed90612ab6565b60405180910390fd5b600073ffffffffffffffffffffffffffffffffffffffff1660008054906101000a900473ffffffffffffffffffffffffffffffffffffffff1673ffffffffffffffffffffffffffffffffffffffff167f8be0079c531659141344cd1fd0a4f28419497f9722a3daafe3b4186f6b6457e060405160405180910390a360008060006101000a81548173ffffffffffffffffffffffffffffffffffffffff021916908373ffffffffffffffffffffffffffffffffffffffff160217905550565b610bbc611c71565b73ffffffffffffffffffffffffffffffffffffffff16610bda610ed9565b73ffffffffffffffffffffffffffffffffffffffff1614610c30576040517f08c379a0000000000000000000000000000000000000000000000000000000008152600401610c2790612ab6565b60405180910390fd5b8173ffffffffffffffffffffffffffffffffffffffff166108fc829081150290604051600060405180830381858888f19350505050158015610c76573d6000803e3d6000fd5b505050565b600a60003373ffffffffffffffffffffffffffffffffffffffff1673ffffffffffffffffffffffffffffffffffffffff16815260200190815260200160002060009054906101000a900460ff16610d07576040517f08c379a0000000000000000000000000000000000000000000000000000000008152600401610cfe90612a16565b60405180910390fd5b600560009054906101000a900473ffffffffffffffffffffffffffffffffffffffff1673ffffffffffffffffffffffffffffffffffffffff16638896637e83836040518363ffffffff1660e01b8152600401610d64929190612961565b600060405180830381600087803b158015610d7e57600080fd5b505af1158015610d92573d6000803e3d6000fd5b505050505050565b600a60003373ffffffffffffffffffffffffffffffffffffffff1673ffffffffffffffffffffffffffffffffffffffff16815260200190815260200160002060009054906101000a900460ff16610e26576040517f08c379a0000000000000000000000000000000000000000000000000000000008152600401610e1d90612a16565b60405180910390fd5b600460009054906101000a900473ffffffffffffffffffffffffffffffffffffffff1673ffffffffffffffffffffffffffffffffffffffff16637daf440d83836040518363ffffffff1660e01b8152600401610e83929190612961565b600060405180830381600087803b158015610e9d57600080fd5b505af1158015610eb1573d6000803e3d6000fd5b505050505050565b60076020528060005260406000206000915054906101000a900460ff1681565b60008060009054906101000a900473ffffffffffffffffffffffffffffffffffffffff16905090565b600b60003373ffffffffffffffffffffffffffffffffffffffff1673ffffffffffffffffffffffffffffffffffffffff16815260200190815260200160002060009054906101000a900460ff16610f8e576040517f08c379a0000000000000000000000000000000000000000000000000000000008152600401610f8590612a96565b60405180910390fd5b600560009054906101000a900473ffffffffffffffffffffffffffffffffffffffff1673ffffffffffffffffffffffffffffffffffffffff16637468b9ba83836040518363ffffffff1660e01b8152600401610feb929190612961565b600060405180830381600087803b15801561100557600080fd5b505af1158015611019573d6000803e3d6000fd5b505050505050565b600460009054906101000a900473ffffffffffffffffffffffffffffffffffffffff1681565b600660009054906101000a900473ffffffffffffffffffffffffffffffffffffffff1673ffffffffffffffffffffffffffffffffffffffff1663247f8e14336040518263ffffffff1660e01b81526004016110a291906127ef565b60206040518083038186803b1580156110ba57600080fd5b505afa1580156110ce573d6000803e3d6000fd5b505050506040513d601f19601f820116820180604052508101906110f291906124bb565b611131576040517f08c379a000000000000000000000000000000000000000000000000000000000815260040161112890612a56565b60405180910390fd5b60016000815480929190611144906130af565b919050555060006009600060015481526020019081526020016000209050338160000160006101000a81548173ffffffffffffffffffffffffffffffffffffffff021916908373ffffffffffffffffffffffffffffffffffffffff160217905550838160010160006101000a81548173ffffffffffffffffffffffffffffffffffffffff021916908373ffffffffffffffffffffffffffffffffffffffff16021790555060008160030181905550600081600401819055504281600201819055508281600601908051906020019061121d9291906120fc565b5081816007019080519060200190611236929190612182565b507fcd1513da10348981b4b830863e6082db2dedc866e25ddbe8d0490d139139353860015433868686604051611270959493929190612b31565b60405180910390a150505050565b611286611c71565b73ffffffffffffffffffffffffffffffffffffffff166112a4610ed9565b73ffffffffffffffffffffffffffffffffffffffff16146112fa576040517f08c379a00000000000000000000000000000000000000000000000000000000081526004016112f190612ab6565b60405180910390fd5b8060038190555050565b60086020528060005260406000206000915090505481565b6000806000806000806060806000600960008b815260200190815260200160002090508060000160009054906101000a900473ffffffffffffffffffffffffffffffffffffffff1698508060010160009054906101000a900473ffffffffffffffffffffffffffffffffffffffff1697508060030154965080600401549550806002015494508060050160009054906101000a900460ff1693508060060180546113c59061304c565b80601f01602080910402602001604051908101604052809291908181526020018280546113f19061304c565b801561143e5780601f106114135761010080835404028352916020019161143e565b820191906000526020600020905b81548152906001019060200180831161142157829003601f168201915b505050505092508060070180546114549061304c565b80601f01602080910402602001604051908101604052809291908181526020018280546114809061304c565b80156114cd5780601f106114a2576101008083540402835291602001916114cd565b820191906000526020600020905b8154815290600101906020018083116114b057829003601f168201915b5050505050915050919395975091939597565b600660009054906101000a900473ffffffffffffffffffffffffffffffffffffffff1673ffffffffffffffffffffffffffffffffffffffff1663247f8e14336040518263ffffffff1660e01b815260040161153b91906127ef565b60206040518083038186803b15801561155357600080fd5b505afa158015611567573d6000803e3d6000fd5b505050506040513d601f19601f8201168201806040525081019061158b91906124bb565b6115ca576040517f08c379a00000000000000000000000000000000000000000000000000000000081526004016115c190612a56565b60405180910390fd5b6000600960008481526020019081526020016000209050600115158160090160003373ffffffffffffffffffffffffffffffffffffffff1673ffffffffffffffffffffffffffffffffffffffff16815260200190815260200160002060009054906101000a900460ff1615151415611677576040517f08c379a000000000000000000000000000000000000000000000000000000000815260040161166e90612ad6565b60405180910390fd5b6000600660009054906101000a900473ffffffffffffffffffffffffffffffffffffffff1673ffffffffffffffffffffffffffffffffffffffff166359d177e6336040518263ffffffff1660e01b81526004016116d491906127ef565b60206040518083038186803b1580156116ec57600080fd5b505afa158015611700573d6000803e3d6000fd5b505050506040513d601f19601f820116820180604052508101906117249190612515565b905081600401600081548092919061173b906130af565b919050558260040181905550604051806060016040528084151581526020013373ffffffffffffffffffffffffffffffffffffffff168152602001828152508260080160008460040154815260200190815260200160002060008201518160000160006101000a81548160ff02191690831515021790555060208201518160000160016101000a81548173ffffffffffffffffffffffffffffffffffffffff021916908373ffffffffffffffffffffffffffffffffffffffff1602179055506040820151816001015590505061181e818360030154611c7990919063ffffffff16565b826003018190555060018260090160003373ffffffffffffffffffffffffffffffffffffffff1673ffffffffffffffffffffffffffffffffffffffff16815260200190815260200160002060006101000a81548160ff0219169083151502179055506000600560009054906101000a900473ffffffffffffffffffffffffffffffffffffffff1673ffffffffffffffffffffffffffffffffffffffff166318160ddd6040518163ffffffff1660e01b815260040160206040518083038186803b1580156118ea57600080fd5b505afa1580156118fe573d6000803e3d6000fd5b505050506040513d601f19601f820116820180604052508101906119229190612515565b90506000611934846003015483611c8f565b905080156119465761194586611cd1565b5b7f8c724afa237af26860f3b2b65ee8416b4b83d7b62d8b826baad8f9962d60d1f486338760405161197993929190612b92565b60405180910390a1505050505050565b600b60003373ffffffffffffffffffffffffffffffffffffffff1673ffffffffffffffffffffffffffffffffffffffff16815260200190815260200160002060009054906101000a900460ff16611a15576040517f08c379a0000000000000000000000000000000000000000000000000000000008152600401611a0c90612a96565b60405180910390fd5b600460009054906101000a900473ffffffffffffffffffffffffffffffffffffffff1673ffffffffffffffffffffffffffffffffffffffff1663eb97781583836040518363ffffffff1660e01b8152600401611a72929190612961565b600060405180830381600087803b158015611a8c57600080fd5b505af1158015611aa0573d6000803e3d6000fd5b505050505050565b611ab0611c71565b73ffffffffffffffffffffffffffffffffffffffff16611ace610ed9565b73ffffffffffffffffffffffffffffffffffffffff1614611b24576040517f08c379a0000000000000000000000000000000000000000000000000000000008152600401611b1b90612ab6565b60405180910390fd5b600073ffffffffffffffffffffffffffffffffffffffff168173ffffffffffffffffffffffffffffffffffffffff161415611b94576040517f08c379a0000000000000000000000000000000000000000000000000000000008152600401611b8b90612a36565b60405180910390fd5b8073ffffffffffffffffffffffffffffffffffffffff1660008054906101000a900473ffffffffffffffffffffffffffffffffffffffff1673ffffffffffffffffffffffffffffffffffffffff167f8be0079c531659141344cd1fd0a4f28419497f9722a3daafe3b4186f6b6457e060405160405180910390a3806000806101000a81548173ffffffffffffffffffffffffffffffffffffffff021916908373ffffffffffffffffffffffffffffffffffffffff16021790555050565b600a6020528060005260406000206000915054906101000a900460ff1681565b600033905090565b60008183611c879190612cbc565b905092915050565b600080611c9e84846002611fb1565b905082841415611cb2576001915050611ccb565b6003548110611cc5576001915050611ccb565b60009150505b92915050565b6000600960008381526020019081526020016000209050611d016002548260020154611c7990919063ffffffff16565b4210611d465760018160050160006101000a81548160ff02191690831515021790555060008160050160016101000a81548160ff021916908315150217905550611fad565b8060050160009054906101000a900460ff1615611d98576040517f08c379a0000000000000000000000000000000000000000000000000000000008152600401611d8f90612af6565b60405180910390fd5b60008060005b83600401548111611e2357600084600801600083815260200190815260200160002090508060000160009054906101000a900460ff1615611df757611df0816001015485611c7990919063ffffffff16565b9350611e11565b611e0e816001015484611c7990919063ffffffff16565b92505b5080611e1c906130af565b9050611d9e565b5080821115611f2557611ee68360010160009054906101000a900473ffffffffffffffffffffffffffffffffffffffff16846007018054611e639061304c565b80601f0160208091040260200160405190810160405280929190818152602001828054611e8f9061304c565b8015611edc5780601f10611eb157610100808354040283529160200191611edc565b820191906000526020600020905b815481529060010190602001808311611ebf57829003601f168201915b505050505061200e565b60018360050160006101000a81548160ff02191690831515021790555060018360050160016101000a81548160ff021916908315150217905550611f60565b60018360050160006101000a81548160ff02191690831515021790555060008360050160016101000a81548160ff0219169083151502179055505b7fbd7bc0aaff2903ba35b46d71970400e2b05ad8cf141b61a5e30d31967b77edcc848460050160019054906101000a900460ff16604051611fa2929190612bc9565b60405180910390a150505b5050565b600080600183611fc19190612cbc565b600a611fcd9190612d96565b85611fd89190612eb4565b90506000600a60058684611fec9190612d12565b611ff69190612cbc565b6120009190612d12565b905080925050509392505050565b6000808373ffffffffffffffffffffffffffffffffffffffff168360405161203691906127d8565b6000604051808303816000865af19150503d8060008114612073576040519150601f19603f3d011682016040523d82523d6000602084013e612078565b606091505b5091509150816120bd576040517f08c379a00000000000000000000000000000000000000000000000000000000081526004016120b4906129f6565b60405180910390fd5b7f0d655f469da3540d6d1544bc544b2b76944af903f3df556b9666822dbebc85f584826040516120ee92919061280a565b60405180910390a150505050565b8280546121089061304c565b90600052602060002090601f01602090048101928261212a5760008555612171565b82601f1061214357805160ff1916838001178555612171565b82800160010185558215612171579182015b82811115612170578251825591602001919060010190612155565b5b50905061217e9190612208565b5090565b82805461218e9061304c565b90600052602060002090601f0160209004810192826121b057600085556121f7565b82601f106121c957805160ff19168380011785556121f7565b828001600101855582156121f7579182015b828111156121f65782518255916020019190600101906121db565b5b5090506122049190612208565b5090565b5b80821115612221576000816000905550600101612209565b5090565b600061223861223384612c17565b612bf2565b905082815260208101848484011115612254576122536131b9565b5b61225f84828561300a565b509392505050565b600061227a61227584612c48565b612bf2565b905082815260208101848484011115612296576122956131b9565b5b6122a184828561300a565b509392505050565b6000813590506122b881613461565b92915050565b6000813590506122cd81613478565b92915050565b6000813590506122e28161348f565b92915050565b6000815190506122f78161348f565b92915050565b600082601f830112612312576123116131b4565b5b8135612322848260208601612225565b91505092915050565b600082601f8301126123405761233f6131b4565b5b8135612350848260208601612267565b91505092915050565b600081359050612368816134a6565b92915050565b60008151905061237d816134a6565b92915050565b600060208284031215612399576123986131c3565b5b60006123a7848285016122a9565b91505092915050565b6000806000606084860312156123c9576123c86131c3565b5b60006123d7868287016122be565b935050602084013567ffffffffffffffff8111156123f8576123f76131be565b5b6124048682870161232b565b925050604084013567ffffffffffffffff811115612425576124246131be565b5b612431868287016122fd565b9150509250925092565b60008060408385031215612452576124516131c3565b5b6000612460858286016122be565b925050602061247185828601612359565b9150509250929050565b60008060408385031215612492576124916131c3565b5b60006124a0858286016122a9565b92505060206124b185828601612359565b9150509250929050565b6000602082840312156124d1576124d06131c3565b5b60006124df848285016122e8565b91505092915050565b6000602082840312156124fe576124fd6131c3565b5b600061250c84828501612359565b91505092915050565b60006020828403121561252b5761252a6131c3565b5b60006125398482850161236e565b91505092915050565b60008060408385031215612559576125586131c3565b5b600061256785828601612359565b9250506020612578858286016122d3565b9150509250929050565b61258b81612f68565b82525050565b61259a81612f20565b82525050565b6125a981612f0e565b82525050565b6125b881612f32565b82525050565b60006125c982612c79565b6125d38185612c8f565b93506125e3818560208601613019565b6125ec816131c8565b840191505092915050565b600061260282612c79565b61260c8185612ca0565b935061261c818560208601613019565b80840191505092915050565b61263181612f7a565b82525050565b61264081612f9e565b82525050565b61264f81612fc2565b82525050565b600061266082612c84565b61266a8185612cab565b935061267a818560208601613019565b612683816131c8565b840191505092915050565b600061269b601b83612cab565b91506126a6826131e6565b602082019050919050565b60006126be602483612cab565b91506126c98261320f565b604082019050919050565b60006126e1602683612cab565b91506126ec8261325e565b604082019050919050565b6000612704602c83612cab565b915061270f826132ad565b604082019050919050565b6000612727602583612cab565b9150612732826132fc565b604082019050919050565b600061274a602483612cab565b91506127558261334b565b604082019050919050565b600061276d602083612cab565b91506127788261339a565b602082019050919050565b6000612790602783612cab565b915061279b826133c3565b604082019050919050565b60006127b3602783612cab565b91506127be82613412565b604082019050919050565b6127d281612f5e565b82525050565b60006127e482846125f7565b915081905092915050565b600060208201905061280460008301846125a0565b92915050565b600060408201905061281f6000830185612582565b818103602083015261283181846125be565b90509392505050565b600061012082019050612850600083018c6125a0565b61285d602083018b612591565b61286a604083018a6127c9565b61287760608301896127c9565b61288460808301886127c9565b61289160a08301876125af565b61289e60c08301866125af565b81810360e08301526128b08185612655565b90508181036101008301526128c581846125be565b90509a9950505050505050505050565b6000610100820190506128eb600083018b6125a0565b6128f8602083018a6125a0565b61290560408301896127c9565b61291260608301886127c9565b61291f60808301876127c9565b61292c60a08301866125af565b81810360c083015261293e8185612655565b905081810360e083015261295281846125be565b90509998505050505050505050565b600060408201905061297660008301856125a0565b61298360208301846127c9565b9392505050565b600060208201905061299f60008301846125af565b92915050565b60006020820190506129ba6000830184612628565b92915050565b60006020820190506129d56000830184612637565b92915050565b60006020820190506129f06000830184612646565b92915050565b60006020820190508181036000830152612a0f8161268e565b9050919050565b60006020820190508181036000830152612a2f816126b1565b9050919050565b60006020820190508181036000830152612a4f816126d4565b9050919050565b60006020820190508181036000830152612a6f816126f7565b9050919050565b60006020820190508181036000830152612a8f8161271a565b9050919050565b60006020820190508181036000830152612aaf8161273d565b9050919050565b60006020820190508181036000830152612acf81612760565b9050919050565b60006020820190508181036000830152612aef81612783565b9050919050565b60006020820190508181036000830152612b0f816127a6565b9050919050565b6000602082019050612b2b60008301846127c9565b92915050565b600060a082019050612b4660008301886127c9565b612b5360208301876125a0565b612b606040830186612582565b8181036060830152612b728185612655565b90508181036080830152612b8681846125be565b90509695505050505050565b6000606082019050612ba760008301866127c9565b612bb460208301856125a0565b612bc160408301846125af565b949350505050565b6000604082019050612bde60008301856127c9565b612beb60208301846125af565b9392505050565b6000612bfc612c0d565b9050612c08828261307e565b919050565b6000604051905090565b600067ffffffffffffffff821115612c3257612c31613185565b5b612c3b826131c8565b9050602081019050919050565b600067ffffffffffffffff821115612c6357612c62613185565b5b612c6c826131c8565b9050602081019050919050565b600081519050919050565b600081519050919050565b600082825260208201905092915050565b600081905092915050565b600082825260208201905092915050565b6000612cc782612f5e565b9150612cd283612f5e565b9250827fffffffffffffffffffffffffffffffffffffffffffffffffffffffffffffffff03821115612d0757612d066130f8565b5b828201905092915050565b6000612d1d82612f5e565b9150612d2883612f5e565b925082612d3857612d37613127565b5b828204905092915050565b6000808291508390505b6001851115612d8d57808604811115612d6957612d686130f8565b5b6001851615612d785780820291505b8081029050612d86856131d9565b9450612d4d565b94509492505050565b6000612da182612f5e565b9150612dac83612f5e565b9250612dd97fffffffffffffffffffffffffffffffffffffffffffffffffffffffffffffffff8484612de1565b905092915050565b600082612df15760019050612ead565b81612dff5760009050612ead565b8160018114612e155760028114612e1f57612e4e565b6001915050612ead565b60ff841115612e3157612e306130f8565b5b8360020a915084821115612e4857612e476130f8565b5b50612ead565b5060208310610133831016604e8410600b8410161715612e835782820a905083811115612e7e57612e7d6130f8565b5b612ead565b612e908484846001612d43565b92509050818404811115612ea757612ea66130f8565b5b81810290505b9392505050565b6000612ebf82612f5e565b9150612eca83612f5e565b9250817fffffffffffffffffffffffffffffffffffffffffffffffffffffffffffffffff0483118215151615612f0357612f026130f8565b5b828202905092915050565b6000612f1982612f3e565b9050919050565b6000612f2b82612f3e565b9050919050565b60008115159050919050565b600073ffffffffffffffffffffffffffffffffffffffff82169050919050565b6000819050919050565b6000612f7382612fe6565b9050919050565b6000612f8582612f8c565b9050919050565b6000612f9782612f3e565b9050919050565b6000612fa982612fb0565b9050919050565b6000612fbb82612f3e565b9050919050565b6000612fcd82612fd4565b9050919050565b6000612fdf82612f3e565b9050919050565b6000612ff182612ff8565b9050919050565b600061300382612f3e565b9050919050565b82818337600083830152505050565b60005b8381101561303757808201518184015260208101905061301c565b83811115613046576000848401525b50505050565b6000600282049050600182168061306457607f821691505b6020821081141561307857613077613156565b5b50919050565b613087826131c8565b810181811067ffffffffffffffff821117156130a6576130a5613185565b5b80604052505050565b60006130ba82612f5e565b91507fffffffffffffffffffffffffffffffffffffffffffffffffffffffffffffffff8214156130ed576130ec6130f8565b5b600182019050919050565b7f4e487b7100000000000000000000000000000000000000000000000000000000600052601160045260246000fd5b7f4e487b7100000000000000000000000000000000000000000000000000000000600052601260045260246000fd5b7f4e487b7100000000000000000000000000000000000000000000000000000000600052602260045260246000fd5b7f4e487b7100000000000000000000000000000000000000000000000000000000600052604160045260246000fd5b600080fd5b600080fd5b600080fd5b600080fd5b6000601f19601f8301169050919050565b60008160011c9050919050565b7f64656c656761746546756e6374696f6e43616c6c204661696c65640000000000600082015250565b7f446563656e747261436f72653a2043616c6c6572206973206e6f742061206d6960008201527f6e74657200000000000000000000000000000000000000000000000000000000602082015250565b7f4f776e61626c653a206e6577206f776e657220697320746865207a65726f206160008201527f6464726573730000000000000000000000000000000000000000000000000000602082015250565b7f446563656e747261436f72653a2043616c6c6572206973206e6f7420616e206160008201527f6374697665206d656d6265720000000000000000000000000000000000000000602082015250565b7f446563656e747261436f72653a20496e76616c696420496e707574205072697660008201527f6c65646765000000000000000000000000000000000000000000000000000000602082015250565b7f446563656e747261436f72653a2043616c6c6572206973206e6f74206120627560008201527f726e657200000000000000000000000000000000000000000000000000000000602082015250565b7f4f776e61626c653a2063616c6c6572206973206e6f7420746865206f776e6572600082015250565b7f596f75204861766520616c726561647920766f746564206f6e2074686973207060008201527f726f706f73616c00000000000000000000000000000000000000000000000000602082015250565b7f546869732070726f706f73616c2068617320616c7265616479206265656e206560008201527f7865637574656400000000000000000000000000000000000000000000000000602082015250565b61346a81612f0e565b811461347557600080fd5b50565b61348181612f20565b811461348c57600080fd5b50565b61349881612f32565b81146134a357600080fd5b50565b6134af81612f5e565b81146134ba57600080fd5b5056fea26469706673582212203169b86c1fcd5f63dc03a0c5f7c8033d6d41bd2ca3616d901cbd19cd8e297cad64736f6c63430008060033",
  "linkReferences": {},
  "deployedLinkReferences": {}
}