{
  "_format": "hh-sol-artifact-1",
  "contractName": "DScore",
  "sourceName": "contracts/DScore.sol",
  "abi": [
    {
      "inputs": [
        {
          "internalType": "address",
          "name": "_dStock",
          "type": "address"
        }
      ],
      "stateMutability": "nonpayable",
      "type": "constructor"
    },
    {
      "anonymous": false,
      "inputs": [
        {
          "indexed": false,
          "internalType": "address",
          "name": "member",
          "type": "address"
        },
        {
          "indexed": false,
          "internalType": "uint256",
          "name": "factor",
          "type": "uint256"
        },
        {
          "indexed": false,
          "internalType": "uint256",
          "name": "amountDecreased",
          "type": "uint256"
        }
      ],
      "name": "DScoreDecreased",
      "type": "event"
    },
    {
      "anonymous": false,
      "inputs": [
        {
          "indexed": false,
          "internalType": "address",
          "name": "member",
          "type": "address"
        },
        {
          "indexed": false,
          "internalType": "uint256",
          "name": "factor",
          "type": "uint256"
        },
        {
          "indexed": false,
          "internalType": "uint256",
          "name": "amountIncreased",
          "type": "uint256"
        }
      ],
      "name": "DScoreIncreased",
      "type": "event"
    },
    {
      "anonymous": false,
      "inputs": [
        {
          "indexed": false,
          "internalType": "address",
          "name": "member",
          "type": "address"
        },
        {
          "indexed": false,
          "internalType": "uint256",
          "name": "timeFrozen",
          "type": "uint256"
        }
      ],
      "name": "Memberfrozen",
      "type": "event"
    },
    {
      "anonymous": false,
      "inputs": [
        {
          "indexed": false,
          "internalType": "address",
          "name": "member",
          "type": "address"
        },
        {
          "indexed": false,
          "internalType": "uint256",
          "name": "amountStaked",
          "type": "uint256"
        }
      ],
      "name": "MembershipStaked",
      "type": "event"
    },
    {
      "anonymous": false,
      "inputs": [
        {
          "indexed": true,
          "internalType": "address",
          "name": "previousOwner",
          "type": "address"
        },
        {
          "indexed": true,
          "internalType": "address",
          "name": "newOwner",
          "type": "address"
        }
      ],
      "name": "OwnershipTransferred",
      "type": "event"
    },
    {
      "inputs": [
        {
          "internalType": "address",
          "name": "_member",
          "type": "address"
        }
      ],
      "name": "calculateVotingPower",
      "outputs": [
        {
          "internalType": "uint256",
          "name": "",
          "type": "uint256"
        }
      ],
      "stateMutability": "view",
      "type": "function"
    },
    {
      "inputs": [
        {
          "internalType": "address",
          "name": "_member",
          "type": "address"
        }
      ],
      "name": "checkStaked",
      "outputs": [
        {
          "internalType": "bool",
          "name": "",
          "type": "bool"
        }
      ],
      "stateMutability": "view",
      "type": "function"
    },
    {
      "inputs": [],
      "name": "dc",
      "outputs": [
        {
          "internalType": "contract IDecentraCore",
          "name": "",
          "type": "address"
        }
      ],
      "stateMutability": "view",
      "type": "function"
    },
    {
      "inputs": [
        {
          "internalType": "address",
          "name": "_member",
          "type": "address"
        },
        {
          "internalType": "uint256",
          "name": "_factor",
          "type": "uint256"
        },
        {
          "internalType": "uint256",
          "name": "_amount",
          "type": "uint256"
        }
      ],
      "name": "decreaseDScore",
      "outputs": [],
      "stateMutability": "nonpayable",
      "type": "function"
    },
    {
      "inputs": [],
      "name": "ds",
      "outputs": [
        {
          "internalType": "contract IDecentraStock",
          "name": "",
          "type": "address"
        }
      ],
      "stateMutability": "view",
      "type": "function"
    },
    {
      "inputs": [
        {
          "internalType": "address",
          "name": "_member",
          "type": "address"
        }
      ],
      "name": "getDscore",
      "outputs": [
        {
          "internalType": "uint256",
          "name": "level",
          "type": "uint256"
        },
        {
          "internalType": "uint256",
          "name": "jobs",
          "type": "uint256"
        },
        {
          "internalType": "uint256",
          "name": "votes",
          "type": "uint256"
        },
        {
          "internalType": "uint256",
          "name": "reputation",
          "type": "uint256"
        },
        {
          "internalType": "uint256",
          "name": "staked",
          "type": "uint256"
        },
        {
          "internalType": "uint256",
          "name": "verified",
          "type": "uint256"
        },
        {
          "internalType": "uint256",
          "name": "audit",
          "type": "uint256"
        }
      ],
      "stateMutability": "view",
      "type": "function"
    },
    {
      "inputs": [
        {
          "internalType": "address",
          "name": "_member",
          "type": "address"
        },
        {
          "internalType": "uint256",
          "name": "_factor",
          "type": "uint256"
        },
        {
          "internalType": "uint256",
          "name": "_amount",
          "type": "uint256"
        }
      ],
      "name": "increaseDScore",
      "outputs": [],
      "stateMutability": "nonpayable",
      "type": "function"
    },
    {
      "inputs": [
        {
          "internalType": "address",
          "name": "",
          "type": "address"
        }
      ],
      "name": "members",
      "outputs": [
        {
          "internalType": "uint256",
          "name": "level",
          "type": "uint256"
        },
        {
          "internalType": "uint256",
          "name": "jobs",
          "type": "uint256"
        },
        {
          "internalType": "uint256",
          "name": "votes",
          "type": "uint256"
        },
        {
          "internalType": "uint256",
          "name": "reputation",
          "type": "uint256"
        },
        {
          "internalType": "uint256",
          "name": "staked",
          "type": "uint256"
        },
        {
          "internalType": "uint256",
          "name": "verified",
          "type": "uint256"
        },
        {
          "internalType": "uint256",
          "name": "audit",
          "type": "uint256"
        }
      ],
      "stateMutability": "view",
      "type": "function"
    },
    {
      "inputs": [],
      "name": "owner",
      "outputs": [
        {
          "internalType": "address",
          "name": "",
          "type": "address"
        }
      ],
      "stateMutability": "view",
      "type": "function"
    },
    {
      "inputs": [],
      "name": "renounceOwnership",
      "outputs": [],
      "stateMutability": "nonpayable",
      "type": "function"
    },
    {
      "inputs": [
        {
          "internalType": "address",
          "name": "_dCore",
          "type": "address"
        }
      ],
      "name": "setDC",
      "outputs": [],
      "stateMutability": "nonpayable",
      "type": "function"
    },
    {
      "inputs": [
        {
          "internalType": "uint256",
          "name": "_stakeAmount",
          "type": "uint256"
        }
      ],
      "name": "stakeMembership",
      "outputs": [],
      "stateMutability": "nonpayable",
      "type": "function"
    },
    {
      "inputs": [],
      "name": "stakedCounter",
      "outputs": [
        {
          "internalType": "uint256",
          "name": "",
          "type": "uint256"
        }
      ],
      "stateMutability": "view",
      "type": "function"
    },
    {
      "inputs": [
        {
          "internalType": "address",
          "name": "newOwner",
          "type": "address"
        }
      ],
      "name": "transferOwnership",
      "outputs": [],
      "stateMutability": "nonpayable",
      "type": "function"
    }
  ],
  "bytecode": "0x60806040523480156200001157600080fd5b5060405162001b2b38038062001b2b83398181016040528101906200003791906200014e565b6000620000496200012f60201b60201c565b9050806000806101000a81548173ffffffffffffffffffffffffffffffffffffffff021916908373ffffffffffffffffffffffffffffffffffffffff1602179055508073ffffffffffffffffffffffffffffffffffffffff16600073ffffffffffffffffffffffffffffffffffffffff167f8be0079c531659141344cd1fd0a4f28419497f9722a3daafe3b4186f6b6457e060405160405180910390a35080600260006101000a81548173ffffffffffffffffffffffffffffffffffffffff021916908373ffffffffffffffffffffffffffffffffffffffff16021790555050620001d3565b600033905090565b6000815190506200014881620001b9565b92915050565b600060208284031215620001675762000166620001b4565b5b6000620001778482850162000137565b91505092915050565b60006200018d8262000194565b9050919050565b600073ffffffffffffffffffffffffffffffffffffffff82169050919050565b600080fd5b620001c48162000180565b8114620001d057600080fd5b50565b61194880620001e36000396000f3fe608060405234801561001057600080fd5b50600436106100ea5760003560e01c80637673a7d81161008c578063c0ecce9511610066578063c0ecce9514610257578063d40ef77214610273578063d8a531a61461028f578063f2fde38b146102ad576100ea565b80637673a7d8146102015780638da5cb5b1461021d578063a2314bea1461023b576100ea565b80632b361ce5116100c85780632b361ce51461017357806330dce62b146101a957806359d177e6146101c7578063715018a6146101f7576100ea565b806308ae4b0c146100ef57806315b1df4b14610125578063247f8e1414610143575b600080fd5b61010960048036038101906101049190611210565b6102c9565b60405161011c9796959493929190611555565b60405180910390f35b61012d61030b565b60405161013a919061153a565b60405180910390f35b61015d60048036038101906101589190611210565b610311565b60405161016a9190611469565b60405180910390f35b61018d60048036038101906101889190611210565b610377565b6040516101a09796959493929190611555565b60405180910390f35b6101b1610401565b6040516101be919061149f565b60405180910390f35b6101e160048036038101906101dc9190611210565b610427565b6040516101ee919061153a565b60405180910390f35b6101ff61067e565b005b61021b60048036038101906102169190611210565b6107b8565b005b610225610878565b60405161023291906113ee565b60405180910390f35b610255600480360381019061025091906112bd565b6108a1565b005b610271600480360381019061026c919061123d565b6109cf565b005b61028d6004803603810190610288919061123d565b610ca1565b005b610297610f73565b6040516102a49190611484565b60405180910390f35b6102c760048036038101906102c29190611210565b610f99565b005b60046020528060005260406000206000915090508060000154908060010154908060020154908060030154908060040154908060050154908060060154905087565b60015481565b600080600460008473ffffffffffffffffffffffffffffffffffffffff1673ffffffffffffffffffffffffffffffffffffffff168152602001908152602001600020905060008160040154111561036c576001915050610372565b60009150505b919050565b600080600080600080600080600460008a73ffffffffffffffffffffffffffffffffffffffff1673ffffffffffffffffffffffffffffffffffffffff16815260200190815260200160002090508060000154975080600101549650806002015495508060030154945080600401549350806005015492508060060154915050919395979092949650565b600260009054906101000a900473ffffffffffffffffffffffffffffffffffffffff1681565b600080600460008473ffffffffffffffffffffffffffffffffffffffff1673ffffffffffffffffffffffffffffffffffffffff16815260200190815260200160002090506000600260009054906101000a900473ffffffffffffffffffffffffffffffffffffffff1673ffffffffffffffffffffffffffffffffffffffff166370a08231856040518263ffffffff1660e01b81526004016104c891906113ee565b60206040518083038186803b1580156104e057600080fd5b505afa1580156104f4573d6000803e3d6000fd5b505050506040513d601f19601f8201168201806040525081019061051891906112ea565b90506000600260009054906101000a900473ffffffffffffffffffffffffffffffffffffffff1673ffffffffffffffffffffffffffffffffffffffff166318160ddd6040518163ffffffff1660e01b815260040160206040518083038186803b15801561058457600080fd5b505afa158015610598573d6000803e3d6000fd5b505050506040513d601f19601f820116820180604052508101906105bc91906112ea565b905060006105ca8383611142565b90506000600a8211156105e057600a90506105e4565b8190505b6000610629866004015461061b886006015461060d8a600301548761118890919063ffffffff16565b61118890919063ffffffff16565b61118890919063ffffffff16565b905061066e866001015461066088600001546106528a600201548661118890919063ffffffff16565b61118890919063ffffffff16565b61118890919063ffffffff16565b9050809650505050505050919050565b61068661119e565b73ffffffffffffffffffffffffffffffffffffffff166106a4610878565b73ffffffffffffffffffffffffffffffffffffffff16146106fa576040517f08c379a00000000000000000000000000000000000000000000000000000000081526004016106f19061151a565b60405180910390fd5b600073ffffffffffffffffffffffffffffffffffffffff1660008054906101000a900473ffffffffffffffffffffffffffffffffffffffff1673ffffffffffffffffffffffffffffffffffffffff167f8be0079c531659141344cd1fd0a4f28419497f9722a3daafe3b4186f6b6457e060405160405180910390a360008060006101000a81548173ffffffffffffffffffffffffffffffffffffffff021916908373ffffffffffffffffffffffffffffffffffffffff160217905550565b6107c061119e565b73ffffffffffffffffffffffffffffffffffffffff166107de610878565b73ffffffffffffffffffffffffffffffffffffffff1614610834576040517f08c379a000000000000000000000000000000000000000000000000000000000815260040161082b9061151a565b60405180910390fd5b80600360006101000a81548173ffffffffffffffffffffffffffffffffffffffff021916908373ffffffffffffffffffffffffffffffffffffffff16021790555050565b60008060009054906101000a900473ffffffffffffffffffffffffffffffffffffffff16905090565b600360009054906101000a900473ffffffffffffffffffffffffffffffffffffffff1673ffffffffffffffffffffffffffffffffffffffff16639c94f65133836040518363ffffffff1660e01b81526004016108fe929190611409565b600060405180830381600087803b15801561091857600080fd5b505af115801561092c573d6000803e3d6000fd5b505050506000600460003373ffffffffffffffffffffffffffffffffffffffff1673ffffffffffffffffffffffffffffffffffffffff168152602001908152602001600020905061098a82826004015461118890919063ffffffff16565b81600401819055507fe443293be86edd1535235d0a55b4df4a1b3497ac403e639fdd681555cdadcc9733836040516109c3929190611409565b60405180910390a15050565b600360009054906101000a900473ffffffffffffffffffffffffffffffffffffffff1673ffffffffffffffffffffffffffffffffffffffff166351bcc28b336040518263ffffffff1660e01b8152600401610a2a91906113ee565b602060405180830381600087803b158015610a4457600080fd5b505af1158015610a58573d6000803e3d6000fd5b505050506040513d601f19601f82011682018060405250810190610a7c9190611290565b610abb576040517f08c379a0000000000000000000000000000000000000000000000000000000008152600401610ab2906114da565b60405180910390fd5b60078210610afe576040517f08c379a0000000000000000000000000000000000000000000000000000000008152600401610af5906114fa565b60405180910390fd5b6000600460003373ffffffffffffffffffffffffffffffffffffffff1673ffffffffffffffffffffffffffffffffffffffff16815260200190815260200160002090506000831415610b6a57610b6182826000015461118890919063ffffffff16565b81600001819055505b6001831415610b9357610b8a82826001015461118890919063ffffffff16565b81600101819055505b6002831415610bbc57610bb382826002015461118890919063ffffffff16565b81600201819055505b6003831415610be557610bdc82826003015461118890919063ffffffff16565b81600301819055505b6004831415610c0e57610c0582826004015461118890919063ffffffff16565b81600401819055505b6005831415610c3757610c2e82826005015461118890919063ffffffff16565b81600501819055505b6006831415610c6057610c5782826006015461118890919063ffffffff16565b81600601819055505b7fdf228da87e37580239a03771810d458fff73ec821c301ac40689149189fc8ba8848484604051610c9393929190611432565b60405180910390a150505050565b600360009054906101000a900473ffffffffffffffffffffffffffffffffffffffff1673ffffffffffffffffffffffffffffffffffffffff166351bcc28b336040518263ffffffff1660e01b8152600401610cfc91906113ee565b602060405180830381600087803b158015610d1657600080fd5b505af1158015610d2a573d6000803e3d6000fd5b505050506040513d601f19601f82011682018060405250810190610d4e9190611290565b610d8d576040517f08c379a0000000000000000000000000000000000000000000000000000000008152600401610d84906114da565b60405180910390fd5b60078210610dd0576040517f08c379a0000000000000000000000000000000000000000000000000000000008152600401610dc7906114fa565b60405180910390fd5b6000600460003373ffffffffffffffffffffffffffffffffffffffff1673ffffffffffffffffffffffffffffffffffffffff16815260200190815260200160002090506000831415610e3c57610e338282600001546111a690919063ffffffff16565b81600001819055505b6001831415610e6557610e5c8282600101546111a690919063ffffffff16565b81600101819055505b6002831415610e8e57610e858282600201546111a690919063ffffffff16565b81600201819055505b6003831415610eb757610eae8282600301546111a690919063ffffffff16565b81600301819055505b6004831415610ee057610ed78282600401546111a690919063ffffffff16565b81600401819055505b6005831415610f0957610f008282600501546111a690919063ffffffff16565b81600501819055505b6006831415610f3257610f298282600601546111a690919063ffffffff16565b81600601819055505b7ff4e547d62ee5a63fb3f2b656ddc8394bc03decc510602ae6149f260a7f5ac096848484604051610f6593929190611432565b60405180910390a150505050565b600360009054906101000a900473ffffffffffffffffffffffffffffffffffffffff1681565b610fa161119e565b73ffffffffffffffffffffffffffffffffffffffff16610fbf610878565b73ffffffffffffffffffffffffffffffffffffffff1614611015576040517f08c379a000000000000000000000000000000000000000000000000000000000815260040161100c9061151a565b60405180910390fd5b600073ffffffffffffffffffffffffffffffffffffffff168173ffffffffffffffffffffffffffffffffffffffff161415611085576040517f08c379a000000000000000000000000000000000000000000000000000000000815260040161107c906114ba565b60405180910390fd5b8073ffffffffffffffffffffffffffffffffffffffff1660008054906101000a900473ffffffffffffffffffffffffffffffffffffffff1673ffffffffffffffffffffffffffffffffffffffff167f8be0079c531659141344cd1fd0a4f28419497f9722a3daafe3b4186f6b6457e060405160405180910390a3806000806101000a81548173ffffffffffffffffffffffffffffffffffffffff021916908373ffffffffffffffffffffffffffffffffffffffff16021790555050565b6000806103e884611153919061165c565b90506000600a60058584611167919061162b565b61117191906115d5565b61117b919061162b565b9050809250505092915050565b6000818361119691906115d5565b905092915050565b600033905090565b600081836111b491906116b6565b905092915050565b6000813590506111cb816118cd565b92915050565b6000815190506111e0816118e4565b92915050565b6000813590506111f5816118fb565b92915050565b60008151905061120a816118fb565b92915050565b600060208284031215611226576112256117d8565b5b6000611234848285016111bc565b91505092915050565b600080600060608486031215611256576112556117d8565b5b6000611264868287016111bc565b9350506020611275868287016111e6565b9250506040611286868287016111e6565b9150509250925092565b6000602082840312156112a6576112a56117d8565b5b60006112b4848285016111d1565b91505092915050565b6000602082840312156112d3576112d26117d8565b5b60006112e1848285016111e6565b91505092915050565b600060208284031215611300576112ff6117d8565b5b600061130e848285016111fb565b91505092915050565b611320816116ea565b82525050565b61132f816116fc565b82525050565b61133e81611732565b82525050565b61134d81611756565b82525050565b60006113606026836115c4565b915061136b826117dd565b604082019050919050565b60006113836028836115c4565b915061138e8261182c565b604082019050919050565b60006113a66017836115c4565b91506113b18261187b565b602082019050919050565b60006113c96020836115c4565b91506113d4826118a4565b602082019050919050565b6113e881611728565b82525050565b60006020820190506114036000830184611317565b92915050565b600060408201905061141e6000830185611317565b61142b60208301846113df565b9392505050565b60006060820190506114476000830186611317565b61145460208301856113df565b61146160408301846113df565b949350505050565b600060208201905061147e6000830184611326565b92915050565b60006020820190506114996000830184611335565b92915050565b60006020820190506114b46000830184611344565b92915050565b600060208201905081810360008301526114d381611353565b9050919050565b600060208201905081810360008301526114f381611376565b9050919050565b6000602082019050818103600083015261151381611399565b9050919050565b60006020820190508181036000830152611533816113bc565b9050919050565b600060208201905061154f60008301846113df565b92915050565b600060e08201905061156a600083018a6113df565b61157760208301896113df565b61158460408301886113df565b61159160608301876113df565b61159e60808301866113df565b6115ab60a08301856113df565b6115b860c08301846113df565b98975050505050505050565b600082825260208201905092915050565b60006115e082611728565b91506115eb83611728565b9250827fffffffffffffffffffffffffffffffffffffffffffffffffffffffffffffffff038211156116205761161f61177a565b5b828201905092915050565b600061163682611728565b915061164183611728565b925082611651576116506117a9565b5b828204905092915050565b600061166782611728565b915061167283611728565b9250817fffffffffffffffffffffffffffffffffffffffffffffffffffffffffffffffff04831182151516156116ab576116aa61177a565b5b828202905092915050565b60006116c182611728565b91506116cc83611728565b9250828210156116df576116de61177a565b5b828203905092915050565b60006116f582611708565b9050919050565b60008115159050919050565b600073ffffffffffffffffffffffffffffffffffffffff82169050919050565b6000819050919050565b600061173d82611744565b9050919050565b600061174f82611708565b9050919050565b600061176182611768565b9050919050565b600061177382611708565b9050919050565b7f4e487b7100000000000000000000000000000000000000000000000000000000600052601160045260246000fd5b7f4e487b7100000000000000000000000000000000000000000000000000000000600052601260045260246000fd5b600080fd5b7f4f776e61626c653a206e6577206f776e657220697320746865207a65726f206160008201527f6464726573730000000000000000000000000000000000000000000000000000602082015250565b7f446563656e747261436f72653a2043616c6c6572206973206e6f74206120445360008201527f636f7265204d4f44000000000000000000000000000000000000000000000000602082015250565b7f442d53636f72653a20496e76616c696420666163746f72000000000000000000600082015250565b7f4f776e61626c653a2063616c6c6572206973206e6f7420746865206f776e6572600082015250565b6118d6816116ea565b81146118e157600080fd5b50565b6118ed816116fc565b81146118f857600080fd5b50565b61190481611728565b811461190f57600080fd5b5056fea264697066735822122046c9b15a27d1596c90ea9b1229036319b27cd28827ea91116c05591cb8b669bb64736f6c63430008060033",
  "linkReferences": {},
  "deployedLinkReferences": {}
}